:020000040800F2
:100000000000022069120008890F00088F0F000805
:10001000950F00089B0F0008A10F000800000000CA
:10002000000000000000000000000000A70F000812
:10003000B50F000800000000C30F0008D10F000832
:10004000B9120008B9120008B9120008B912000864
:10005000B9120008B9120008B9120008B912000854
:10006000B9120008B9120008B9120008B912000844
:10007000B9120008B9120008B9120008B912000834
:10008000DD0F0008F10F0008B912000800000000A1
:10009000000000000000000000000000B91200088D
:1000A000B9120008B9120008B9120008B912000804
:1000B000B9120008B9120008B9120008B9120008F4
:1000C000B9120008B9120008B9120008B9120008E4
:1000D000B9120008B912000805100008000000005D
:1000E000B9120008B9120008B91200080000000097
:1000F000000000000000000000000000B91200082D
:1001000000000000B9120008B9120008B912000876
:1001100000000000000000000000000000000000DF
:10012000B9120008B9120008B9120008B912000883
:10013000B9120008000000000000000000000000EC
:10014000000000000000000000000000B9120008DC
:10015000B9120008B9120008B9120008B912000853
:10016000B9120008B91200080000000000000000E9
:10017000000000000000000000000000000000007F
:1001800000000000B912000800000000000000009C
:08019000B9120008B9120008C1
:1001A00010B5054C237833B9044B13B10448AFF3B1
:1001B00000800123237010BD6000002000000000BB
:1001C000B05A000808B5034B1BB103490348AFF30D
:1001D000008008BD0000000064000020B05A000844
:1001E00053B94AB9002908BF00281CBF4FF0FF319E
:1001F0004FF0FF3000F06AB9ADF1080C6DE904CEA4
:1002000000F006F8DDF804E0DDE9022304B07047F1
:100210002DE9F047089D0C46002B4ED194468C45A5
:100220008646B2FA82F262D94AB1C2F12003914005
:1002300020FA03F30CFA02FC194300FA02FE4FEA1B
:100240001C471FFA8CF6B1FBF7F44FEA1E4307FB7D
:10025000141143EA014304FB06F199420AD91CEB4D
:10026000030304F1FF3080F01281994240F20F81C4
:10027000023C6344591A1FFA8EF3B1FBF7F007FBF7
:10028000101143EA014300FB06F69E420AD91CEB1B
:10029000030300F1FF3180F0FC809E4240F2F980C0
:1002A000634402389B1B40EA044000211DB1D34047
:1002B0000022C5E90032BDE8F0878B4205D90DB1B7
:1002C000C5E9000100210846F5E7B3FA83F10029EA
:1002D00046D1A34202D39042C0F0F080861A64EB6C
:1002E00003030120002DE6D0C5E90063E3E7002AFF
:1002F00040F09080A1EB0C044FEA1C481FFA8CF7E9
:100300000121B4FBF8F64FEA1E4308FB164443EA0A
:10031000044307FB06F0984208D91CEB030306F1DF
:10032000FF3402D2984200F2CD8026461C1A1FFAF2
:100330008EF3B4FBF8F008FB104443EA044300FBDF
:1003400007F79F4208D91CEB030300F1FF3402D2E8
:100350009F4200F2B0802046DB1B40EA0640A5E742
:10036000C1F120068B4022FA06F71F4320FA06FC53
:1003700004FA01F343EA0C03F44000FA01F8380CE4
:100380004FEA1349B4FBF0FE1FFA87FC00FB1E4442
:1003900049EA04440EFB0CF9A14502FA01F20AD91C
:1003A0003C190EF1FF3A80F08480A14540F2818033
:1003B000AEF1020E3C44A4EB09041FFA83F9B4FB2E
:1003C000F0F300FB134449EA044403FB0CFCA4458E
:1003D00007D93C1903F1FF3067D2A44565D9023B28
:1003E0003C4443EA0E40A0FB0293A4EB0C049C4265
:1003F000CE469C4651D34ED055B1B8EB0E0364EBBC
:100400000C0404FA06F6CB401E43CC40C5E9006458
:10041000002150E7C2F1200320FA03F10CFA02FC9C
:1004200024FA03F394400C434FEA1C4800FA02FEFE
:100430001FFA8CF7B3FBF8F008FB1031230C43EAEA
:10044000014300FB07F1994208D91CEB030300F1BB
:10045000FF362CD299422AD9023863445B1AA4B2DF
:10046000B3FBF8F108FB113344EA034401FB07F343
:10047000A34208D91CEB040401F1FF3613D2A342B6
:1004800011D902396444E41A41EA004139E70446CB
:10049000F0E6084606E7C845AED2B9EB020E63EBBC
:1004A000070C0138A8E73146EDE7034699E73046E7
:1004B000D4E7D6467FE7634402384DE70646234635
:1004C00008460FE7023E634430E700BF704700BFB5
:1004D00010F8012B11F8013B012A28BF9A42F7D0EE
:1004E000D01A7047034613F8012B002AFBD1181AC3
:1004F000013870470000000000000000000000000C
:1005000001F0FF01102A2BDB10F0070F08D010F8C4
:10051000013B013A8B422DD010F0070F42B3F6D1C8
:10052000F0B441EA012141EA014122F007047FF0E1
:1005300000070023F0E80256083C85EA010586EA38
:10054000010685FA47F5A3FA87F586FA47F6A5FA74
:1005500087F68EB9EED1F0BC01F0FF0102F0070280
:1005600032B110F8013B013A83EA010313B1F8D12B
:100570000020704701387047002D06BF354603380C
:10058000073815F0010F07D1013015F4807F02BF45
:10059000013015F4C03F0130F0BC0138704700BF96
:1005A0000FB480B582B000AF07F114037B607A68A6
:1005B00039690E4804F078F90346002B0FDD0B482B
:1005C000FFF790FF03461A46094BC3F89821084BE2
:1005D000D3F898311946054800F02EF800E000BF26
:1005E0000837BD46BDE8804004B070474801002090
:1005F0007C00002080B500AF4FF4807209490A48A2
:1006000002F0FAFE094B1B681A68084B1B6822F0BF
:100610001C021A604FF400620549064800F03AF8DF
:1006200000BF80BD18020020600B0020A80B002036
:1006300018030020280B002080B584B000AF78603C
:1006400039603A687968114800F045F80346002B94
:1006500016D10F4B93F84130DBB2202B0ED107F1AE
:1006600008030A49184600F07BF8BB68FA6892B2A2
:100670001946074802F050FE002302E0012300E083
:10068000012318461037BD4680BD00BF280B00204F
:10069000600B002080B485B000AFF860B9607A606C
:1006A000BB68002B10D0FB68BA681A61FB687A68D7
:1006B0001A60FB6800225A60FB6800229A60FB689F
:1006C0000022DA60002300E0012318461437BD46FB
:1006D0005DF8047B704780B489B000AFF860B96002
:1006E0007A6000237B610023FB61FB689B68BB6130
:1006F000FB681A68FB685B68D31A7B617A697B6860
:100700009A4226DB0023FB6114E0FB69BA681A44B5
:10071000FB681969BB69581CB8610B4412781A70E0
:10072000FB681B68BA699A4201DB0023BB61FB6965
:100730000133FB61FA697B689A42E6DBFB68BA69C0
:100740009A60FB685A687B681A44FB685A60002309
:1007500000E0012318462437BD465DF8047B70474E
:1007600080B489B000AF786039603B681B68FB617A
:100770003B685B68BB613B68DB687B61BB69002BE6
:1007800028DD7A69BB691A44FB699A4202DABB69BF
:100790003B6103E0FA697B69D31A3B613B681B69E3
:1007A0007A691344BB603B69FB603B69BA69D31A41
:1007B000BB613A697B6913447B617A69FB699A4240
:1007C00001DB00237B61BA693B685A607A693B6848
:1007D000DA6003E00023BB600023FB607B681A46FD
:1007E00007F1080393E8030082E8030078682437E0
:1007F000BD465DF8047B704780B485B000AF03460A
:10080000FB711D4BFB60FB79072B2BD801A252F823
:1008100023F000BF350800083B0800084108000825
:10082000470800084D080008530800085908000848
:100830005F080008114BFB6017E0114BFB6014E0F0
:10084000104BFB6011E0104BFB600EE00F4BFB60A8
:100850000BE00F4BFB6008E00E4BFB6005E00E4B1E
:10086000FB6002E0054BFB6000BFFB6818461437D5
:10087000BD465DF8047B7047C85A0008CC5A000892
:10088000D45A0008E45A0008FC5A0008185B000813
:10089000285B0008445B0008605B000880B487B0F8
:1008A00000AFF860B9607A607B684FF0FF321A6081
:1008B00000237B6100237B6117E07B681B681B0EB4
:1008C000FB74FA687B6913441A78FB7C5340FB7411
:1008D0007B681B681A02FB7C094951F823305A4097
:1008E0007B681A607B6901337B617A69BB689A42D5
:1008F000E3D300BF00BF1C37BD465DF8047B7047E3
:100900001061000880B485B000AF0023FB73404B3A
:10091000BB60404B7B60404B3B603B681B68190EE3
:10092000FB7B5A1CFA731A46C9B23C4B99543B687C
:100930001B68190CFB7B5A1CFA731A46C9B2374B59
:1009400099543B681B68190AFB7B5A1CFA731A46B8
:10095000C9B2324B99543B681968FB7B5A1CFA7335
:100960001A46C9B22D4B99547B681B68190EFB7B44
:100970005A1CFA731A46C9B2284B99547B681B68F3
:10098000190CFB7B5A1CFA731A46C9B2234B9954B3
:100990007B681B68190AFB7B5A1CFA731A46C9B29A
:1009A0001E4B99547B681968FB7B5A1CFA731A46D4
:1009B000C9B21A4B9954BB681B68190EFB7B5A1CB1
:1009C000FA731A46C9B2154B9954BB681B68190CC7
:1009D000FB7B5A1CFA731A46C9B2104B9954BB6878
:1009E0001B68190AFB7B5A1CFA731A46C9B20B4BD7
:1009F0009954BB681968FB7B5A1CFA731A46C9B232
:100A0000064B995400BF1437BD465DF8047B704710
:100A1000107AFF1F147AFF1F187AFF1F180B00208F
:100A2000B0B598B002AF786000233B652B4B07F15F
:100A300008041D460FCD0FC40FCD0FC495E80F005D
:100A400084E80F0007F1480107F1380207F14C0371
:100A500000930B462249234803F0E4FE07F14001CE
:100A600007F1440207F13C0300930B461E491F485F
:100A700003F0D8FE00233B6514E03B6D9B00583328
:100A80003B4453F8502C07F1380311461846FFF742
:100A90001FFD0346002B02D13B6D01337B653B6D8F
:100AA00001333B653B6D0B2BE7DDB86CFA6C104BEB
:100AB00083FB02135911D317CB1A642101FB03F3F3
:100AC000D31A7A6C019200937B6D024609497868CB
:100AD00003F088FE00BF5837BD46B0BDF85B000884
:100AE000785B0008845B0008905B00089C5B000852
:100AF0001F85EB51A85B00082DE9F04190B00AAFCB
:100B000078613961FA60BB603248FFF749FD3248CD
:100B1000FFF746FD0023012200213048FFF740FD8A
:100B200079692F48FFF73CFD39692E48FFF738FDFA
:100B30002D48FFF735FD2D48FFF732FDFB681B7888
:100B40009C46FB6801331B789E46FB6802331B788A
:100B50009846FB6803331B781A46FB6804331B78FE
:100B60001946FB6805331B781846FB6806331B786B
:100B70001C46FB6807331B781D46FB6808331B784F
:100B80001E46FB6809331B787B60FB680A331B78C1
:100B90003B60FB680B331B7808933B6807937B68CB
:100BA00006930596049503940290019100924346A2
:100BB000724661460E48FFF7F3FCB9680D48FFF72F
:100BC000EFFC0D48FFF7ECFC00BF1837BD46BDE851
:100BD000F08100BF285C00083C5C0008845C0008D1
:100BE000B45C0008DC5C0008045D00084C5D000893
:100BF000905D0008D45D0008F05D000880B582B00B
:100C000000AF00237B60104B1B6B0F4A43F40013B3
:100C100013630D4B1B6B03F400137B607B68002296
:100C20000021102000F03AFC102000F063FC0022AC
:100C30000021112000F032FC112000F05BFC00BF0D
:100C40000837BD4680BD00BF0038024080B58AB07D
:100C500000AF07F1140300221A605A609A60DA604C
:100C60001A6100233B612D4B1B6B2C4A43F004039C
:100C700013632A4B1B6B03F004033B613B690023A6
:100C8000FB60264B1B6B254A43F080031363234B09
:100C90001B6B03F08003FB60FB680023BB601F4BF2
:100CA0001B6B1E4A43F0010313631C4B1B6B03F0C9
:100CB0000103BB60BB6800237B60184B1B6B174AAA
:100CC00043F002031363154B1B6B03F002037B60BD
:100CD0007B6800222021124801F044FC4FF40053AD
:100CE0007B614FF40413BB610023FB6107F1140324
:100CF00019460C4801F09EF920237B610123BB615A
:100D00000023FB6100233B6207F1140319460448EA
:100D100001F090F900BF2837BD4680BD0038024081
:100D2000000002400008024080B584B000AF786047
:100D30007B680A4A93420CD107F108030849184618
:100D4000FFF70EFDBB68FA6892B21946034802F03D
:100D5000E3FA00BF1037BD4680BD00BF600B002026
:100D6000280B002080B500AF03F0A6FC00F06AF865
:100D7000FFF76CFFFFF742FF00F096F9264B1B7858
:100D80001846FFF739FD0346244A1360FFF732FC8B
:100D9000FFF7B8FD224A0C212248FFF77FFD2248C9
:100DA000FFF73EFE1D4B18681D4B1B681D4A1E4970
:100DB000FFF7A2FE1D48FFF7F3FB1D4B1B68002B3E
:100DC00006D01B4B1B6819461A48FFF7E9FB02E0E7
:100DD0001948FFF7E5FB0A211848FFF7E1FB18481F
:100DE000FFF7DEFB4FF47A7003F0D8FC1448FFF7EE
:100DF000D7FB0F4B1B68002B06D00D4B1B68194609
:100E00000C48FFF7CDFB02E00B48FFF7C9FB0A21B6
:100E10000A48FFF7C5FBE5E73C0B0020400B00202C
:100E2000240B0020180B0020440B0020345E000827
:100E3000000000204C5E00086C5E0008845E000824
:100E4000A05E000880B594B000AF07F12003302207
:100E50000021184603F032FD07F10C0300221A604E
:100E60005A609A60DA601A610023BB60284B1B6CE1
:100E7000274A43F080531364254B1B6C03F08053C7
:100E8000BB60BB6800237B60224B1B68214A43F494
:100E9000404313601F4B1B6803F440437B607B6837
:100EA00002233B620123FB6210233B630223BB63EB
:100EB0000023FB6310233B644FF4A8737B6404237B
:100EC000BB640423FB6407F12003184601F076FBA2
:100ED0000346002B01D000F01FF80F23FB60022314
:100EE0003B6100237B614FF48053BB610023FB61B6
:100EF00007F10C030221184601F08CFE0346002B7B
:100F000001D000F009F800BF5037BD4680BD00BFDA
:100F1000003802400070004080B400AF72B600BFDD
:100F2000FEE780B483B000AF7860396000BF0C3753
:100F3000BD465DF8047B704780B582B000AF0023EA
:100F40007B60104B5B6C0F4A43F4804353640D4B42
:100F50005B6C03F480437B607B6800233B60094B40
:100F60001B6C084A43F080531364064B1B6C03F060
:100F700080533B603B68072000F070FA00BF0837E1
:100F8000BD4680BD0038024080B400AFFEE780B4AB
:100F900000AFFEE780B400AFFEE780B400AFFEE72D
:100FA00080B400AFFEE780B400AF00BFBD465DF87F
:100FB000047B704780B400AF00BFBD465DF8047B82
:100FC000704780B400AF00BFBD465DF8047B70473A
:100FD00080B500AF03F0C2FB00BF80BD80B500AF9D
:100FE000024800F0BDFD00BF80BD00BFA80B00207F
:100FF00080B500AF024800F0B3FD00BF80BD00BF68
:10100000080C002080B500AF024802F01BFA00BFB8
:1010100080BD00BF600B002080B586B000AF786057
:10102000144A154BD31A7B617B693B61134B1B68D8
:10103000002B02D1114B124A1A60104B1A687B68C0
:1010400013443A699A4207D203F040FC03460C224B
:101050001A604FF0FF3309E0084B1B68FB60074B39
:101060001A687B681344054A1360FB6818461837F2
:10107000BD4680BD00000220000400005C0B002083
:10108000B80D002080B400AF064BD3F88830054A75
:1010900043F47003C2F8883000BFBD465DF8047B9E
:1010A000704700BF00ED00E080B500AF114B124A61
:1010B0001A60104B4FF4E1325A600E4B00229A60D6
:1010C0000C4B0022DA600B4B00221A61094B0C22F8
:1010D0005A61084B00229A61064B0022DA610548EA
:1010E00002F060F80346002B01D0FFF715FF00BFA8
:1010F00080BD00BF600B00200044004080B58AB076
:1011000000AF786007F1140300221A605A609A60F9
:10111000DA601A617B681B684C4A934240F0918008
:1011200000233B614A4B1B6C494A43F40033136470
:10113000474B1B6C03F400333B613B690023FB60AE
:10114000434B1B6B424A43F001031363404B1B6B41
:1011500003F00103FB60FB680C237B610223BB618E
:101160000023FB6103233B6207237B6207F1140327
:101170001946384800F05EFF374B384A1A60364B44
:101180004FF000625A60344B00229A60324B0022CA
:10119000DA60314B4FF480621A612F4B00225A61A2
:1011A0002D4B00229A612C4B4FF48072DA612A4B4E
:1011B00000221A62284B00225A62274800F0BEF92A
:1011C0000346002B01D0FFF7A7FE7B68224ADA63B3
:1011D000214A7B689363224B224A1A60204B4FF0CE
:1011E00000625A601E4B40229A601D4B0022DA605A
:1011F0001B4B4FF480621A61194B00225A61184B45
:1012000000229A61164B0022DA61154B00221A6205
:10121000134B00225A62124800F090F90346002B4B
:1012200001D0FFF779FE7B680D4A9A630C4A7B6810
:10123000936300220021262000F030F9262000F0E0
:1012400059F900BF2837BD4680BD00BF00440040AB
:101250000038024000000240A80B002088600240D5
:10126000080C0020A0600240DFF834D0FFF70AFF2E
:101270000C480D490D4A002302E0D458C4500433F1
:10128000C4188C42F9D30A4A0A4C002301E01360C7
:101290000432A242FBD303F01FFBFFF763FD70474C
:1012A000000002200000002060000020906600087E
:1012B00060000020B40D0020FEE7000080B485B07F
:1012C00000AF78607B6803F00703FB600C4BDB68C2
:1012D000BB60BA684FF6FF031340BB60FB681A029D
:1012E000BB68134343F0BF6343F40033BB60044A5D
:1012F000BB68D36000BF1437BD465DF8047B704700
:1013000000ED00E080B400AF044BDB681B0A03F083
:1013100007031846BD465DF8047B704700ED00E00A
:1013200080B483B000AF0346FB7197F90730002B00
:101330000BDBFB7903F01F02074997F907305B09C4
:10134000012000FA02F241F8232000BF0C37BD460D
:101350005DF8047B704700BF00E100E080B483B01B
:1013600000AF03463960FB7197F90730002B0ADBA9
:101370003B68DAB20C4997F907301201D2B20B443C
:1013800083F800230AE03B68DAB20849FB7903F0EE
:101390000F03043B1201D2B20B441A7600BF0C3784
:1013A000BD465DF8047B704700E100E000ED00E021
:1013B00080B489B000AFF860B9607A60FB6803F070
:1013C0000703FB61FB69C3F10703042B28BF042358
:1013D000BB61FB690433062B02D9FB69033B00E0C8
:1013E00000237B614FF0FF32BB6902FA03F3DA435B
:1013F000BB681A407B699A404FF0FF317B6901FA64
:1014000003F3D9437B680B40134318462437BD468A
:101410005DF8047B7047000080B582B000AF786053
:101420007B68013BB3F1807F01D301230FE00A4ABF
:101430007B68013B53600F214FF0FF30FFF78EFFB9
:10144000054B00229A60044B07221A6000231846BD
:101450000837BD4680BD00BF10E000E080B582B017
:1014600000AF78607B68072B0FD07B68062B0CD011
:101470007B68052B09D07B68042B06D07B68032B87
:1014800003D090210448FFF74CFD7868FFF716FF62
:1014900000BF0837BD4680BDBC5E000880B586B081
:1014A00000AF0346B9607A60FB7300237B617B6801
:1014B0000F2B03D9A8210E48FFF733FDBB680F2B74
:1014C00003D9A9210A48FFF72CFDFFF71BFF78611C
:1014D0007A68B9687869FFF76BFF024697F90F30B1
:1014E00011461846FFF73AFF00BF1837BD4680BDCA
:1014F000BC5E000880B582B000AF0346FB7197F96F
:101500000730002B03DABC210548FFF70AFD97F9E5
:1015100007301846FFF704FF00BF0837BD4680BDFF
:10152000BC5E000880B582B000AF78607868FFF7D5
:1015300073FF034618460837BD4680BD80B586B0A8
:1015400000AF786000237B6103F01CF938617B6891
:10155000002B01D1012303E27B681B688B4A934275
:101560004ED07B681B688A4A934249D07B681B68CF
:10157000884A934244D07B681B68874A93423FD095
:101580007B681B68854A93423AD07B681B68844A13
:10159000934235D07B681B68824A934230D07B6887
:1015A0001B68814A93422BD07B681B687F4A934219
:1015B00026D07B681B687E4A934221D07B681B68DB
:1015C0007C4A93421CD07B681B687B4A934217D0AD
:1015D0007B681B68794A934212D07B681B68784A03
:1015E00093420DD07B681B68764A934208D07B6893
:1015F0001B68754A934203D0B7217448FFF791FCEA
:101600007B685B68002B26D07B685B68B3F1007F4A
:1016100021D07B685B68B3F1806F1CD07B685B680E
:10162000B3F1C06F17D07B685B68B3F1006F12D065
:101630007B685B68B3F1206F0DD07B685B68B3F1AA
:10164000406F08D07B685B68B3F1606F03D0B8214E
:101650005E48FFF766FC7B689B68002B0BD07B68BD
:101660009B68402B07D07B689B68802B03D0B921F7
:101670005648FFF756FC7B68DB68B3F5007F07D060
:101680007B68DB68002B03D0BA215048FFF749FC88
:101690007B681B69B3F5806F07D07B681B69002BE3
:1016A00003D0BB214948FFF73CFC7B685B69002BFA
:1016B0000DD07B685B69B3F5006F08D07B685B6910
:1016C000B3F5805F03D0BC214048FFF72AFC7B685C
:1016D0009B69002B0DD07B689B69B3F5005F08D038
:1016E0007B689B69B3F5804F03D0BD213748FFF776
:1016F00018FC7B68DB69002B0CD07B68DB69B3F5D9
:10170000807F07D07B68DB69202B03D0BE212F4868
:10171000FFF707FC7B681B6A002B12D07B681B6AF3
:10172000B3F5803F0DD07B681B6AB3F5003F08D04E
:101730007B681B6AB3F5403F03D0BF212348FFF706
:10174000F0FB7B685B6A002B07D07B685B6A042B2D
:1017500003D0C0211D48FFF7E4FB7B685B6A002BC8
:1017600064D07B689B6A002B32D07B689B6A012B1C
:101770002ED07B689B6A022B2AD07B689B6A032B46
:1017800026D0C5211148FFF7CCFB21E010600240B4
:101790002860024040600240586002407060024091
:1017A00088600240A0600240B860024010640240BD
:1017B0002864024040640240586402407064024061
:1017C00088640240A0640240B8640240345F0008AC
:1017D0007B68DB6A002B12D07B68DB6AB3F5000FF5
:1017E0000DD07B68DB6AB3F1807F08D07B68DB6A51
:1017F000B3F1C07F03D0C6215B48FFF792FB7B6843
:101800001B6B002B12D07B681B6BB3F5001F0DD038
:101810007B681B6BB3F5800F08D07B681B6BB3F53F
:10182000C00F03D0C7215048FFF77BFB7B68022223
:1018300083F835207B68002283F834207B681B689E
:101840001A687B681B6822F001021A600FE002F040
:1018500099FF02463B69D31A052B08D97B682022E1
:101860005A657B68032283F83520032378E07B6880
:101870001B681B6803F00103002BE8D17B681B6821
:101880001B687B617A69394B13407B617B685A68BE
:101890007B689B681A437B68DB681A437B681B691B
:1018A0001A437B685B691A437B689B691A437B68B0
:1018B000DB691A437B681B6A13437A6913437B61B4
:1018C0007B685B6A042B07D17B68DA6A7B681B6BD9
:1018D00013437A6913437B617B681B687A691A60DA
:1018E0007B681B685B697B617B6923F007037B6115
:1018F0007B685B6A7A6913437B617B685B6A042B54
:1019000017D17B689B6A7A6913437B617B68DB6ACA
:10191000002B0ED0786800F011FB0346002B08D096
:101920007B6840225A657B68012283F835200123B9
:1019300016E07B681B687A695A61786800F0C8FA1B
:101940000346FB607B68DB6D3F229A40FB689A6030
:101950007B6800225A657B68012283F835200023CA
:1019600018461837BD4680BD345F00083F8010F030
:1019700080B586B000AFF860B9607A603B60002344
:10198000FB75FB689B6D3B613B68002B03D03B689C
:10199000B3F5803F04D340F2CB112748FFF7C1FADB
:1019A000FB6893F83430012B01D1022340E0FB683F
:1019B000012283F83420FB6893F83530DBB2012B29
:1019C0002FD1FB68022283F83520FB6800225A657C
:1019D0003B687A68B968F86800F04CFAFB68DB6D20
:1019E0003F229A403B699A60FB681B681A68FB6853
:1019F0001B6842F016021A60FB681B6C002B07D0B4
:101A0000FB681B681A68FB681B6842F008021A60D2
:101A1000FB681B681A68FB681B6842F001021A60C9
:101A200005E0FB68002283F834200223FB75FB7D70
:101A300018461837BD4680BD345F000880B584B0B5
:101A400000AF78607B689B6DFB6002F09BFEB86026
:101A50007B6893F83530DBB2022B08D07B6880229C
:101A60005A657B68002283F83420012352E07B68AA
:101A70001B681A687B681B6822F016021A607B6874
:101A80001B685A697B681B6822F080025A617B6878
:101A90001B6C002B03D17B689B6C002B07D07B68F1
:101AA0001B681A687B681B6822F008021A607B6852
:101AB0001B681A687B681B6822F001021A6013E039
:101AC00002F060FE0246BB68D31A052B0CD97B6876
:101AD00020225A657B68032283F835207B68002228
:101AE00083F83420032315E07B681B681B6803F030
:101AF0000103002BE4D17B68DB6D3F229A40FB6839
:101B00009A607B68012283F835207B68002283F885
:101B10003420002318461037BD4680BD80B483B002
:101B200000AF78607B6893F83530DBB2022B04D0CD
:101B30007B6880225A6501230CE07B68052283F8CC
:101B400035207B681B681A687B681B6822F00102DD
:101B50001A60002318460C37BD465DF8047B7047B9
:101B600080B586B000AF78600023BB608E4B1B68E9
:101B70008E4AA2FB03239B0A7B617B689B6D3B61C2
:101B80003B691B68FB607B68DB6D08229A40FB6841
:101B90001340002B1AD07B681B681B6803F00403FA
:101BA000002B13D07B681B681A687B681B6822F0C7
:101BB00004021A607B68DB6D08229A403B699A60D8
:101BC0007B685B6D43F001027B685A657B68DB6D67
:101BD00001229A40FB681340002B12D07B681B68DF
:101BE0005B6903F08003002B0BD07B68DB6D012267
:101BF0009A403B699A607B685B6D43F002027B68A8
:101C00005A657B68DB6D04229A40FB681340002B09
:101C100012D07B681B681B6803F00203002B0BD0FB
:101C20007B68DB6D04229A403B699A607B685B6D40
:101C300043F004027B685A657B68DB6D10229A4092
:101C4000FB681340002B43D07B681B681B6803F0C4
:101C50000803002B3CD07B68DB6D10229A403B6967
:101C60009A607B681B681B6803F48023002B18D0E4
:101C70007B681B681B6803F40023002B08D17B687A
:101C80001B6C002B24D07B681B6C786898471FE086
:101C90007B689B6C002B1BD07B689B6C786898479B
:101CA00016E07B681B681B6803F48073002B07D168
:101CB0007B681B681A687B681B6822F008021A6040
:101CC0007B681B6C002B03D07B681B6C7868984783
:101CD0007B68DB6D20229A40FB681340002B00F0EC
:101CE0008F807B681B681B6803F01003002B00F0DB
:101CF00087807B68DB6D20229A403B699A607B6815
:101D000093F83530DBB2052B36D17B681B681A6837
:101D10007B681B6822F016021A607B681B685A6990
:101D20007B681B6822F080025A617B681B6C002B69
:101D300003D17B689B6C002B07D07B681B681A68FB
:101D40007B681B6822F008021A607B68DB6D3F220B
:101D50009A403B699A607B68012283F835207B6852
:101D6000002283F834207B681B6D002B7ED07B68BB
:101D70001B6D7868984779E07B681B681B6803F4E3
:101D80008023002B1DD07B681B681B6803F4002395
:101D9000002B0DD17B685B6C002B31D07B685B6CBA
:101DA000786898472CE000BF04000020B5814E1BE6
:101DB0007B68DB6B002B23D07B68DB6B78689847F4
:101DC0001EE07B681B681B6803F48073002B0FD137
:101DD0007B681B681A687B681B6822F010021A6017
:101DE0007B68012283F835207B68002283F8342049
:101DF0007B68DB6B002B03D07B68DB6B78689847D4
:101E00007B685B6D002B32D07B685B6D03F0010358
:101E1000002B22D07B68052283F835207B681B6865
:101E20001A687B681B6822F001021A60BB680133E4
:101E3000BB607A699A4207D37B681B681B6803F012
:101E40000103002BF2D100E000BF7B68012283F880
:101E500035207B68002283F834207B68DB6C002B04
:101E600005D07B68DB6C7868984700E000BF1837C6
:101E7000BD4680BD80B485B000AFF860B9607A60BF
:101E80003B60FB681B681A68FB681B6822F48022B1
:101E90001A60FB681B683A685A60FB689B68402BB5
:101EA00008D1FB681B687A689A60FB681B68BA688F
:101EB000DA6007E0FB681B68BA689A60FB681B6819
:101EC0007A68DA6000BF1437BD465DF8047B70475E
:101ED00080B485B000AF78607B681B68DBB2103BD4
:101EE000144AA2FB03231B09FB60134AFB6813443B
:101EF0001B781A467B68DA65FB68032B09D97B6877
:101F00001B6823F47F7323F003031A1D7B689A6513
:101F100007E07B681B6823F47F7323F003037A6870
:101F200093657B689B6D18461437BD465DF8047B4E
:101F3000704700BFABAAAAAA2865000880B485B084
:101F400000AF78600023FB737B689B6ABB607B6893
:101F50009B69002B1FD1BB68032B56D801A252F8F6
:101F600023F000BF751F0008871F0008751F0008B9
:101F70000B2000087B68DB6A03F08073002B46D0DF
:101F80000123FB7343E07B68DB6AB3F1C07F40D180
:101F90000123FB733DE07B689B69B3F5005F21D1B2
:101FA000BB68032B37D801A252F823F0BD1F0008ED
:101FB000C31F0008BD1F0008D51F00080123FB73C5
:101FC00030E07B68DB6A03F08073002B25D00123AF
:101FD000FB7322E07B68DB6AB3F1C07F1FD1012372
:101FE000FB731CE0BB68022B03D9BB68032B03D037
:101FF00018E00123FB7315E07B68DB6A03F0807354
:10200000002B0ED00123FB730BE000BF0AE000BFE2
:1020100008E000BF06E000BF04E000BF02E000BF30
:1020200000E000BFFB7B18461437BD465DF8047B1B
:10203000704700BF80B588B000AF7860396000237A
:102040007B6100233B610023BB617B68324A934282
:1020500017D07B68314A934213D07B68304A934251
:102060000FD07B682F4A93420BD07B682E4A934255
:1020700007D07B682D4A934203D0AC212C48FEF751
:1020800050FF3B681B689BB2002B04D03B681B6869
:10209000B3F5803F03D3AD212548FEF742FF3B68EF
:1020A0005B68002B35D03B685B68012B31D03B6807
:1020B0005B68112B2DD03B685B68022B29D03B68F5
:1020C0005B68122B25D03B685B68B3F5881F20D076
:1020D0003B685B68B3F5041F1BD03B685B68B3F5D6
:1020E000441F16D03B685B68B3F5901F11D03B6866
:1020F0005B68B3F5081F0CD03B685B68B3F5481FFD
:1021000007D03B685B68032B03D0AE210848FEF77D
:1021100008FF0023FB610BE20000024000040240C4
:1021200000080240000C024000100240001C024067
:10213000A85F00080122FB6902FA03F37B613B6898
:102140001B687A6913403B613A697B699A4240F0A7
:10215000EC813B685B6803F00303012B05D03B680F
:102160005B6803F00303022B44D13B68DB68002B60
:102170000FD03B68DB68012B0BD03B68DB68022B80
:1021800007D03B68DB68032B03D0C0218448FEF7EF
:10219000C8FE7B689B68BB61FB695B00032202FA97
:1021A00003F3DB43BA691340BB613B68DA68FB6940
:1021B0005B0002FA03F3BA691343BB617B68BA6937
:1021C0009A607B685B68BB610122FB6902FA03F3DA
:1021D000DB43BA691340BB613B685B681B0903F0D2
:1021E0000102FB6902FA03F3BA691343BB617B681E
:1021F000BA695A603B685B6803F00303032B27D07E
:102200003B689B68002B0BD03B689B68012B07D079
:102210003B689B68022B03D0D1216148FEF781FE09
:102220007B68DB68BB61FB695B00032202FA03F396
:10223000DB43BA691340BB613B689A68FB695B008A
:1022400002FA03F3BA691343BB617B68BA69DA60C7
:102250003B685B6803F00303022B40F0A3803B68FC
:102260001B69002B77D03B681B69092B73D03B6837
:102270001B69002B6FD03B681B69002B6BD03B6840
:102280001B69002B67D03B681B69002B63D03B6840
:102290001B69012B5FD03B681B69012B5BD03B683E
:1022A0001B69022B57D03B681B69022B53D03B683C
:1022B0001B69022B4FD03B681B69042B4BD03B683A
:1022C0001B69042B47D03B681B69042B43D03B6838
:1022D0001B69052B3FD03B681B69052B3BD03B6836
:1022E0001B69052B37D03B681B69062B33D03B6835
:1022F0001B69062B2FD03B681B69052B2BD03B6835
:102300001B69062B27D03B681B69072B23D03B6832
:102310001B69072B1FD03B681B69072B1BD03B6831
:102320001B69082B17D03B681B690A2B13D03B682D
:102330001B69092B0FD03B681B69092B0BD03B682D
:102340001B690C2B07D03B681B690F2B03D0DE21C8
:102350001348FEF7E6FDFB69DA087B68083253F89C
:102360002230BB61FB6903F007039B000F2202FAD6
:1023700003F3DB43BA691340BB613B681A69FB692D
:1023800003F007039B0002FA03F3BA691343BB612E
:10239000FB69DA087B680832B96943F8221001E06A
:1023A000A85F00087B681B68BB61FB695B000322B8
:1023B00002FA03F3DB43BA691340BB613B685B6815
:1023C00003F00302FB695B0002FA03F3BA691343EB
:1023D000BB617B68BA691A603B685B6803F4403391
:1023E000002B00F0A2800023FB60564B5B6C554A2B
:1023F00043F480435364534B5B6C03F48043FB60B2
:10240000FB68514AFB699B08023352F82330BB61D9
:10241000FB6903F003039B000F2202FA03F3DB4383
:10242000BA691340BB617B68484A934219D07B6804
:10243000474A934213D07B68464A93420DD07B684B
:10244000454A934207D07B68444A934201D1042312
:1024500008E0072306E0032304E0022302E001234F
:1024600000E00023FA6902F0030292009340BA6987
:102470001343BB613449FB699B080233BA6941F8D5
:102480002320374B9B68BB613B69DB43BA69134030
:10249000BB613B685B6803F48013002B03D0BA690F
:1024A0003B691343BB612E4ABB6993602C4BDB68CD
:1024B000BB613B69DB43BA691340BB613B685B6846
:1024C00003F40013002B03D0BA693B691343BB61CB
:1024D000234ABB69D360224B5B68BB613B69DB432A
:1024E000BA691340BB613B685B6803F40033002B9F
:1024F00003D0BA693B691343BB61194ABB69536096
:10250000174B1B68BB613B69DB43BA691340BB6176
:102510003B685B6803F48033002B03D0BA693B69E6
:102520001343BB610E4ABB691360FB690133FB6156
:10253000FB690F2B7FF6FEAD00BF00BF2037BD4605
:1025400080BD00BF0038024000380140000002405A
:102550000004024000080240000C0240001002404B
:10256000003C014080B582B000AF78600B467B80B4
:1025700013467B707B88002B04D140F29D110E48DE
:10258000FEF7CFFC7B78002B07D07B78012B04D0A3
:102590004FF4CF710848FEF7C4FC7B78002B03D0C2
:1025A0007A887B689A6103E07B881A047B689A6169
:1025B00000BF0837BD4680BDA85F000880B586B063
:1025C00000AF78607B68002B01D1012318E37B68A2
:1025D0001B680F2B03D9E6219748FEF7A2FC7B6806
:1025E0001B6803F00103002B00F088807B685B68A8
:1025F000002B0DD07B685B68B3F5803F08D07B680B
:102600005B68B3F5A02F03D0EB218B48FEF789FC64
:102610008A4B9B6803F00C03042B0CD0874B9B6800
:1026200003F00C03082B12D1844B5B6803F4800386
:10263000B3F5800F0BD1814B1B6803F40033002BE3
:102640005BD07B685B68002B57D10123D8E27B68A5
:102650005B68B3F5803F06D1784B1B68774A43F43B
:10266000803313601DE07B685B68B3F5A02F0CD14D
:10267000724B1B68714A43F4802313606F4B1B68D5
:102680006E4A43F4803313600BE06C4B1B686B4A5B
:1026900023F480331360694B1B68684A23F480235A
:1026A00013607B685B68002B13D002F06BF8386115
:1026B00008E002F067F802463B69D31A642B01D99F
:1026C00003239DE25D4B1B6803F40033002BF0D025
:1026D00014E002F057F8386108E002F053F80246BF
:1026E0003B69D31A642B01D9032389E2534B1B683E
:1026F00003F40033002BF0D100E000BF7B681B68BF
:1027000003F00203002B79D07B68DB68002B08D034
:102710007B68DB68012B04D040F21D114648FEF7B0
:1027200000FC7B681B691F2B04D94FF48F71424852
:10273000FEF7F7FB414B9B6803F00C03002B0BD01B
:102740003E4B9B6803F00C03082B1CD13B4B5B6892
:1027500003F48003002B16D1384B1B6803F00203EF
:10276000002B05D07B68DB68012B01D0012347E2F9
:10277000324B1B6823F0F8027B681B69DB002F4992
:1027800013430B603AE07B68DB68002B20D02C4BB6
:1027900001221A6001F0F6FF386108E001F0F2FF53
:1027A00002463B69D31A022B01D9032328E2234BAB
:1027B0001B6803F00203002BF0D0204B1B6823F0B2
:1027C000F8027B681B69DB001C4913430B6015E0B2
:1027D0001B4B00221A6001F0D5FF386108E001F0C0
:1027E000D1FF02463B69D31A022B01D9032307E22A
:1027F000124B1B6803F00203002BF0D17B681B68AF
:1028000003F00803002B45D07B685B69002B08D0E0
:102810007B685B69012B04D04FF4AF710648FEF76B
:1028200080FB7B685B69002B1ED0064B01221A607F
:1028300001F0A8FF386110E01C6000080038024079
:1028400000004742800E474201F09CFF02463B6970
:10285000D31A022B01D90323D2E15E4B5B6F03F045
:102860000203002BF0D015E05B4B00221A6001F050
:1028700089FF386108E001F085FF02463B69D31A01
:10288000022B01D90323BBE1524B5B6F03F0020320
:10289000002BF0D17B681B6803F00403002B00F0D1
:1028A000B0800023FB757B689B68002B0CD07B6895
:1028B0009B68012B08D07B689B68052B04D04FF4E4
:1028C000C5714648FEF72DFB424B1B6C03F080534D
:1028D000002B0FD10023BB603E4B1B6C3D4A43F0E5
:1028E000805313643B4B1B6C03F08053BB60BB688D
:1028F0000123FB753A4B1B6803F48073002B18D13E
:10290000374B1B68364A43F48073136001F03AFF7B
:10291000386108E001F036FF02463B69D31A022B0A
:1029200001D903236CE12E4B1B6803F48073002B49
:10293000F0D07B689B68012B06D1264B1B6F254A84
:1029400043F0010313671CE07B689B68052B0CD1E7
:10295000204B1B6F1F4A43F0040313671D4B1B6F73
:102960001C4A43F0010313670BE01A4B1B6F194A13
:1029700023F001031367174B1B6F164A23F0040360
:1029800013677B689B68002B15D001F0FBFE386154
:102990000AE001F0F7FE02463B69D31A41F28832A1
:1029A000934201D903232BE10A4B1B6F03F002036F
:1029B000002BEED01CE001F0E5FE386112E001F0E2
:1029C000E1FE02463B69D31A41F28832934209D9AB
:1029D000032315E100380240800E47421C600008C6
:1029E00000700040884B1B6F03F00203002BE6D100
:1029F000FB7D012B05D1844B1B6C834A23F0805354
:102A000013647B689B69002B0CD07B689B69012B4E
:102A100008D07B689B69022B04D040F2CD117B4823
:102A2000FEF77FFA7B689B69002B00F0E880764B0D
:102A30009B6803F00C03082B00F0A9807B689B695E
:102A4000022B40F08D807B68DB69002B09D07B680E
:102A5000DB69B3F5800F04D04FF4EB716B48FEF7E0
:102A600060FA7B681B6A012B03D97B681B6A3F2BCA
:102A700004D940F2D7116548FEF753FA7B685B6AC8
:102A8000312B04D97B685B6AB3F5D87F04D94FF446
:102A9000EC715E48FEF745FA7B689B6A022B10D00A
:102AA0007B689B6A042B0CD07B689B6A062B08D042
:102AB0007B689B6A082B04D040F2D9115348FEF77B
:102AC00030FA7B68DB6A012B03D97B68DB6A0F2B4A
:102AD00004D94FF4ED714D48FEF723FA4C4B002218
:102AE0001A6001F04FFE386108E001F04BFE02462B
:102AF0003B69D31A022B01D9032381E0424B1B68A7
:102B000003F00073002BF0D17B68DA697B681B6AE5
:102B10001A437B685B6A9B011A437B689B6A5B086C
:102B2000013B1B041A437B68DB6A1B0636491343CF
:102B30004B60374B01221A6001F024FE386108E037
:102B400001F020FE02463B69D31A022B01D9032370
:102B500056E02D4B1B6803F00073002BF0D04EE0C5
:102B60002B4B00221A6001F00DFE386108E001F0E5
:102B700009FE02463B69D31A022B01D903233FE029
:102B8000214B1B6803F00073002BF0D137E07B680A
:102B90009B69012B01D1012332E01B4B5B68FB6079
:102BA0007B689B69012B28D0FB6803F480027B685B
:102BB000DB699A4221D1FB6803F03F027B681B6A04
:102BC0009A421AD1FA6847F6C07313407A68526A7B
:102BD0009201934211D1FB6803F440327B689B6AF7
:102BE0005B08013B1B049A4207D1FB6803F070624B
:102BF0007B68DB6A1B069A4201D0012300E00023B8
:102C000018461837BD4680BD003802401C600008D9
:102C10006000474280B584B000AF786039607B685F
:102C2000002B01D1012374E17B681B68002B03D0CA
:102C30007B681B680F2B04D940F25A217B48FEF7B2
:102C400070F93B68002B19D03B68012B16D03B680C
:102C5000022B13D03B68032B10D03B68042B0DD004
:102C60003B68052B0AD03B68062B07D03B68072B37
:102C700004D040F25B216D48FEF753F96C4B1B68A2
:102C800003F007033A689A420CD9694B3A68D2B20A
:102C90001A70674B1B6803F007033A689A4201D029
:102CA000012336E17B681B6803F00203002B49D047
:102CB0007B681B6803F00403002B05D05D4B9B6809
:102CC0005C4A43F4E05393607B681B6803F008039D
:102CD000002B05D0574B9B68564A43F460439360E2
:102CE0007B689B68002B24D07B689B68802B20D05E
:102CF0007B689B68902B1CD07B689B68A02B18D0AE
:102D00007B689B68B02B14D07B689B68C02B10D06D
:102D10007B689B68D02B0CD07B689B68E02B08D02D
:102D20007B689B68F02B04D040F27E213F48FEF781
:102D3000F8F8404B9B6823F0F0027B689B683D49A4
:102D400013438B607B681B6803F00103002B59D091
:102D50007B685B68002B10D07B685B68012B0CD014
:102D60007B685B68022B08D07B685B68032B04D010
:102D700040F285212D48FEF7D4F87B685B68012B73
:102D800007D12C4B1B6803F40033002B19D101230E
:102D9000BFE07B685B68022B03D07B685B68032B1A
:102DA00007D1244B1B6803F00073002B09D10123CA
:102DB000AFE0204B1B6803F00203002B01D101237D
:102DC000A7E01C4B9B6823F003027B685B681949F2
:102DD00013438B6001F0D6FCF8600AE001F0D2FCEE
:102DE0000246FB68D31A41F28832934201D9032389
:102DF0008FE0104B9B6803F00C027B685B689B00C4
:102E00009A42EBD10A4B1B6803F007033A689A42D7
:102E100012D2074B3A68D2B21A70054B1B6803F006
:102E200007033A689A4207D0012372E01C60000849
:102E3000003C0240003802407B681B6803F004033A
:102E4000002B25D07B68DB68002B18D07B68DB6803
:102E5000B3F5805F13D07B68DB68B3F5A05F0ED05D
:102E60007B68DB68B3F5C05F09D07B68DB68B3F5CE
:102E7000E05F04D040F2C3212848FEF752F8284B07
:102E80009B6823F4E0527B68DB68254913438B6021
:102E90007B681B6803F00803002B26D07B681B6946
:102EA000002B18D07B681B69B3F5805F13D07B685B
:102EB0001B69B3F5A05F0ED07B681B69B3F5C05FDB
:102EC00009D07B681B69B3F5E05F04D040F2CA21EA
:102ED0001248FEF726F8124B9B6823F460427B6889
:102EE0001B69DB000E4913438B6000F021F802469A
:102EF0000B4B9B681B0903F00F030A49CB5C22FABA
:102F000003F3094A1360094B1B68184601F0F6FBEE
:102F1000002318461037BD4680BD00BF1C60000866
:102F2000003802401065000804000020080000205E
:102F30002DE9B04F94B000AF00237B640023FB6405
:102F400000233B640023BB64794B9B6803F00C03B4
:102F5000082B0DD0082B00F2E180002B02D0042BAF
:102F600003D0DBE0734BBB64DBE0734BBB64D8E0A6
:102F70006F4B5B6803F03F037B646D4B5B6803F44E
:102F80008003002B63D06A4B5B689B090022BB6304
:102F9000FA63BB6BC3F308033B6300237B63D7E98E
:102FA0000C4522462B464FF000004FF0000159011E
:102FB00041EAD261500102460B462146511A39615D
:102FC000294663EB01037B614FF000024FF00003E1
:102FD000D7E904AB59468B01514643EA9163514608
:102FE0008A015146B2EB0108594663EB01094FF0E3
:102FF00000024FF000034FEAC90343EA58734FEA57
:10300000C80290469946234618EB0303BB602B4643
:1030100049EB0303FB604FF000024FF00003D7E9D8
:10302000024529464B02214643EAD15321464A0232
:10303000104619467B6C0022BB62FA62D7E90A236C
:10304000FDF7CEF802460B461346FB6458E0384BBA
:103050005B689B09002218461146C0F308033B62D7
:1030600000237B62D7E9088942464B464FF00000B7
:103070004FF00001590141EAD261500102460B466E
:103080004146B2EB010A494663EB010B4FF00002E7
:103090004FF000034FEA8B1343EA9A634FEA8A1218
:1030A000B2EB0A0463EB0B054FF000024FF0000394
:1030B000EB0043EA5473E20014461D464346E3180E
:1030C0003B604B4645EB03037B604FF000024FF043
:1030D0000003D7E9004529468B02214643EA915374
:1030E00021468A02104619467B6C0022BB61FA61B8
:1030F000D7E90623FDF774F802460B461346FB6436
:103100000B4B5B681B0C03F0030301335B003B6458
:10311000FA6C3B6CB2FBF3F3BB6402E0054BBB649F
:1031200000BFBB6C18465037BD46BDE8B08F00BF2E
:10313000003802400024F40000127A0080B400AF8E
:10314000034B1B681846BD465DF8047B704700BF03
:103150000400002080B500AFFFF7F0FF0246054BEA
:103160009B689B0A03F007030349CB5C22FA03F335
:10317000184680BD003802402065000880B500AFC9
:10318000FFF7DCFF0246054B9B685B0B03F0070370
:103190000349CB5C22FA03F3184680BD0038024095
:1031A0002065000880B582B000AF78607B68002B96
:1031B00001D10123A3E07B689B69002B2CD07B68A5
:1031C0001B68514A93420ED07B681B684F4A93425A
:1031D00009D07B681B684E4A934204D040F27311B9
:1031E0004C48FDF79EFE7B689B69002B28D07B68CE
:1031F0009B69B3F5807F23D07B689B69B3F5007F23
:103200001ED07B689B69B3F5407F19D04FF4BA712B
:103210004048FDF786FE13E07B681B683A4A9342FC
:103220000ED07B681B68394A934209D07B681B68C3
:10323000374A934204D04FF4BC713648FDF771FE13
:103240007B689B68002B09D07B689B68B3F5805F27
:1032500004D04FF4BD712F48FDF763FE7B68DB6936
:10326000002B09D07B68DB69B3F5004F04D040F236
:103270007B112848FDF755FE7B6893F84130DBB29F
:10328000002B06D17B68002283F840207868FDF788
:1032900035FF7B68242283F841207B681B68DA684D
:1032A0007B681B6822F40052DA60786800F04AFFFD
:1032B0007B681B681A697B681B6822F490421A615C
:1032C0007B681B685A697B681B6822F02A025A6176
:1032D0007B681B68DA687B681B6842F40052DA601E
:1032E0007B6800225A647B68202283F841207B6837
:1032F000202283F842207B6800225A63002318466C
:103300000837BD4680BD00BF0010014000440040AA
:10331000001401409060000880B58CB000AFF860E8
:10332000B9601346FB80FB6893F84130DBB2202B79
:1033300056D1BB68002B02D0FB88002B01D10123A2
:103340004FE0BA68FB681A62FB68FA889A84FB68E7
:10335000FA88DA84FB6800225A64FB68212283F829
:103360004120FB689B6B214ADA63FB689B6B204A18
:103370001A64FB689B6B1F4ADA64FB689B6B002234
:103380001A6507F10803FB62FB68986BFB6A196812
:10339000FB681B6804331A46FB88FEF7E9FAFB68F2
:1033A0001B686FF040021A60FB681B681433BB6136
:1033B000BB6953E8003F7B617B6943F08003BB62DC
:1033C000FB681B681433BA6A7A623B62396A7A6AAC
:1033D00041E80023FB61FB69002BE5D1002300E0FD
:1033E000022318463037BD4680BD00BFD1390008E2
:1033F0006B3A0008EF3B000880B584B000AFF8607E
:10340000B9601346FB80FB6893F84230DBB2202B97
:1034100012D1BB68002B02D0FB88002B01D1012305
:103420000BE0FB6800221A63FB881A46B968F8684B
:1034300000F028FC034600E0022318461037BD4682
:1034400080BD000080B5BAB000AF78607B681B68B3
:103450001B68C7F8E4307B681B68DB68C7F8E0309E
:103460007B681B685B69C7F8DC300023C7F8D8307D
:103470000023C7F8D430D7F8E43003F00F03C7F8BF
:10348000D830D7F8D830002B0FD1D7F8E43003F07C
:103490002003002B09D0D7F8E03003F02003002BE5
:1034A00003D0786800F08FFD5BE2D7F8D830002BAE
:1034B00000F0DE80D7F8DC3003F00103002B06D1EA
:1034C000D7F8E03003F49073002B00F0D180D7F8E8
:1034D000E43003F00103002B0BD0D7F8E03003F405
:1034E0008073002B05D07B685B6C43F001027B6826
:1034F0005A64D7F8E43003F00403002B0BD0D7F85C
:10350000DC3003F00103002B05D07B685B6C43F0DB
:1035100002027B685A64D7F8E43003F00203002B00
:103520000BD0D7F8DC3003F00103002B05D07B680B
:103530005B6C43F004027B685A64D7F8E43003F014
:103540000803002B11D0D7F8E03003F02003002B44
:1035500005D1D7F8DC3003F00103002B05D07B68E0
:103560005B6C43F008027B685A647B685B6C002BE1
:1035700000F0F281D7F8E43003F02003002B08D0EC
:10358000D7F8E03003F02003002B02D0786800F079
:103590001AFD7B681B685B6903F04003402B0CBF7E
:1035A00001230023DBB2C7F8D4307B685B6C03F0E7
:1035B0000803002B03D1D7F8D430002B4FD0786804
:1035C00000F022FC7B681B685B6903F04003402B22
:1035D00041D17B681B681433C7F89C30D7F89C3006
:1035E00053E8003FC7F89830D7F8983023F04003ED
:1035F000C7F8D0307B681B681433D7F8D020C7F8E1
:10360000A820C7F8A430D7F8A410D7F8A82041E81C
:103610000023C7F8A030D7F8A030002BD9D17B68A1
:10362000DB6B002B13D07B68DB6B7E4A1A657B68F3
:10363000DB6B1846FEF772FA0346002B16D07B6848
:10364000DB6B1B6D7A68D26B104698470EE078688A
:1036500000F0A8F90AE0786800F0A4F906E07868BC
:1036600000F0A0F97B6800225A6475E100BF73E1A5
:103670007B681B6B012B40F04F81D7F8E43003F0DF
:103680001003002B00F04881D7F8E03003F010035E
:10369000002B00F041810023BB607B681B681B6826
:1036A000BB607B681B685B68BB60BB687B681B6832
:1036B0005B6903F04003402B40F0B6807B68DB6B16
:1036C0001B685B68A7F8BE30B7F8BE30002B00F06F
:1036D00045817B689B8DB7F8BE209A4280F03E8181
:1036E0007B68B7F8BE20DA857B68DB6BDB69B3F5F6
:1036F000807F00F088807B681B680C33C7F88830B7
:10370000D7F8883053E8003FC7F88430D7F88430C2
:1037100023F48073C7F8B8307B681B680C33D7F884
:10372000B820C7F89420C7F89030D7F89010D7F891
:10373000942041E80023C7F88C30D7F88C30002B58
:10374000D9D17B681B6814337B677B6F53E8003FDC
:103750003B673B6F23F00103C7F8B4307B681B68FD
:103760001433D7F8B420C7F88020FB67F96FD7F877
:10377000802041E80023BB67BB6F002BE1D17B6851
:103780001B6814333B663B6E53E8003FFB65FB6DE3
:1037900023F04003C7F8B0307B681B681433D7F8B8
:1037A000B020FA66BB66B96EFA6E41E800237B660C
:1037B0007B6E002BE3D17B68202283F842207B685C
:1037C00000221A637B681B680C33FB64FB6C53E8B4
:1037D000003FBB64BB6C23F01003C7F8AC307B68C0
:1037E0001B680C33D7F8AC20BA657B65796DBA6D70
:1037F00041E800233B653B6D002BE3D17B68DB6B2D
:103800001846FEF71BF97B6802225A637B689A8D83
:103810007B68DB8D9BB2D31A9BB21946786800F0A7
:10382000CBF89BE0CF3E00087B689A8D7B68DB8DF0
:103830009BB2D31AA7F8CE307B68DB8D9BB2002BEE
:1038400000F08E80B7F8CE30002B00F089807B68C6
:103850001B680C33BB63BB6B53E8003F7B637B6B24
:1038600023F49073C7F8C8307B681B680C33D7F813
:10387000C8207A643B64396C7A6C41E80023FB63AE
:10388000FB6B002BE3D17B681B6814337B627B6A84
:1038900053E8003F3B623B6A23F00103C7F8C430A2
:1038A0007B681B681433D7F8C4203A63FB62F96A5B
:1038B0003A6B41E80023BB62BB6A002BE3D17B6813
:1038C000202283F842207B6800221A637B681B68F1
:1038D0000C333B613B6953E8003FFB60FB6823F01E
:1038E0001003C7F8C0307B681B680C33D7F8C020C2
:1038F000FA61BB61B969FA6941E800237B617B69C0
:10390000002BE3D17B6802225A63B7F8CE30194608
:10391000786800F051F823E0D7F8E43003F0800332
:10392000002B09D0D7F8E03003F08003002B03D040
:10393000786800F0E0FA14E0D7F8E43003F04003D0
:10394000002B0ED0D7F8E03003F04003002B08D056
:10395000786800F020FB04E000BF02E000BF00E058
:1039600000BFE837BD4680BD80B483B000AF78604B
:1039700000BF0C37BD465DF8047B704780B483B050
:1039800000AF786000BF0C37BD465DF8047B704720
:1039900080B483B000AF786000BF0C37BD465DF8DF
:1039A000047B704780B483B000AF786000BF0C37F1
:1039B000BD465DF8047B704780B483B000AF78608B
:1039C0000B467B8000BF0C37BD465DF8047B70471B
:1039D00080B590B000AF78607B689B6BFB637B68C1
:1039E0001B681B6803F48073002B37D1FB6B00222C
:1039F000DA84FB6B1B6814337B627B6A53E8003FFD
:103A00003B623B6A23F08003BB63FB6B1B68143390
:103A1000BA6B3A63FB62F96A3A6B41E80023BB6216
:103A2000BB6A002BE5D1FB6B1B680C333B613B6928
:103A300053E8003FFB60FB6843F040037B63FB6B94
:103A40001B680C337A6BFA61BB61B969FA6941E8AA
:103A500000237B617B69002BE5D102E0F86BFDF769
:103A600063F900BF4037BD4680BD80B584B000AF6C
:103A700078607B689B6BFB60F868FFF775FF00BFA1
:103A80001037BD4680BD80B59CB000AF78607B68C4
:103A90009B6BFB667B681B681B6803F48073002BC1
:103AA00072D1FB6E0022DA85FB6E1B680C33FB645F
:103AB000FB6C53E8003FBB64BB6C23F48073BB66B4
:103AC000FB6E1B680C33BA6EBA657B65796DBA6D97
:103AD00041E800233B653B6D002BE5D1FB6E1B6885
:103AE0001433BB63BB6B53E8003F7B637B6B23F0FA
:103AF00001037B66FB6E1B6814337A6E7A643B6449
:103B0000396C7A6C41E80023FB63FB6B002BE5D139
:103B1000FB6E1B6814337B627B6A53E8003F3B6299
:103B20003B6A23F040033B66FB6E1B6814333A6E1E
:103B30003A63FB62F96A3A6B41E80023BB62BB6AF5
:103B4000002BE5D1FB6E202283F84220FB6E1B6B1D
:103B5000012B19D1FB6E1B680C333B613B6953E8A9
:103B6000003FFB60FB6823F01003FB65FB6E1B68E6
:103B70000C33FA6DFA61BB61B969FA6941E8002357
:103B80007B617B69002BE5D1FB6E00225A63FB6EE3
:103B90001B6B012B06D1FB6E9B8D1946F86EFFF750
:103BA0000BFF02E0F86EFFF7E9FE00BF7037BD467D
:103BB00080BD80B584B000AF78607B689B6BFB6094
:103BC000FB6801225A63FB681B6B012B08D1FB6861
:103BD0009B8D5B089BB21946F868FFF7EDFE02E08B
:103BE000F868FFF7D5FE00BF1037BD4680BD80B531
:103BF00084B000AF78600023FB607B689B6BBB6088
:103C0000BB681B685B6903F08003802B0CBF01233A
:103C10000023DBB2FB60BB6893F84130DBB2212BA1
:103C200008D1FB68002B05D0BB680022DA84B86895
:103C300000F0C2F8BB681B685B6903F04003402BCF
:103C40000CBF01230023DBB2FB60BB6893F842305A
:103C5000DBB2222B08D1FB68002B05D0BB68002209
:103C6000DA85B86800F0D0F8BB685B6C43F01002EE
:103C7000BB685A64B868FFF795FE00BF1037BD46B1
:103C800080BD000080B598B000AFF860B960134601
:103C9000FB80BA68FB689A62FB68FA889A85FB68C1
:103CA00000225A64FB68222283F84220FB68DB6B07
:103CB0003E4ADA63FB68DB6B3D4A1A64FB68DB6BE8
:103CC0003C4ADA64FB68DB6B00221A6507F10803E3
:103CD000FB65FB68D86BFB681B6804331946FB6DFA
:103CE0001A68FB88FDF744FE00233B61FB681B68F4
:103CF0001B683B61FB681B685B683B613B69FB6859
:103D00001B69002B19D0FB681B680C333B643B6CB0
:103D100053E8003FFB63FB6B43F48073BB65FB68B8
:103D20001B680C33BA6DFA64BB64B96CFA6C41E879
:103D300000237B647B6C002BE5D1FB681B6814338C
:103D4000FB62FB6A53E8003FBB62BB6A43F00103BE
:103D50007B65FB681B6814337A6DBA637B63796B90
:103D6000BA6B41E800233B633B6B002BE5D1FB685A
:103D70001B681433BB61BB6953E8003F7B617B69FF
:103D800043F040033B65FB681B6814333A6D7A626D
:103D90003B62396A7A6A41E80023FB61FB69002BC8
:103DA000E5D1002318466037BD4680BD873A00083C
:103DB000B33B0008EF3B000880B489B000AF7860E7
:103DC0007B681B680C33FB60FB6853E8003FBB60FB
:103DD000BB6823F0C003FB617B681B680C33FA6986
:103DE000BA617B617969BA6941E800233B613B694B
:103DF000002BE5D17B68202283F8412000BF2437C7
:103E0000BD465DF8047B704780B495B000AF786024
:103E10007B681B680C337B637B6B53E8003F3B6321
:103E20003B6B23F49073FB647B681B680C33FA6C68
:103E30003A64FB63F96B3A6C41E80023BB63BB6BEC
:103E4000002BE5D17B681B6814333B623B6A53E867
:103E5000003FFB61FB6923F00103BB647B681B68C7
:103E60001433BA6CFA62BB62B96AFA6A41E8002399
:103E70007B627B6A002BE5D17B681B6B012B19D120
:103E80007B681B680C33FB60FB6853E8003FBB603A
:103E9000BB6823F010037B647B681B680C337A6C6F
:103EA000BA617B617969BA6941E800233B613B698A
:103EB000002BE5D17B68202283F842207B6800221A
:103EC0001A6300BF5437BD465DF8047B704780B568
:103ED00084B000AF78607B689B6BFB60FB6800225E
:103EE000DA85FB680022DA84F868FFF75BFD00BF23
:103EF0001037BD4680BD80B485B000AF78607B6868
:103F000093F84130DBB2212B3ED17B689B68B3F53F
:103F1000805F14D17B681B69002B10D17B681B6A02
:103F2000FB60FB681B881A467B681B68C2F30802AB
:103F30005A607B681B6A9A1C7B681A6208E07B687F
:103F40001B6A591C7A6811621A787B681B685A6070
:103F50007B68DB8C9BB2013B9BB27A681946D184AB
:103F6000002B0FD17B681B68DA687B681B6822F026
:103F70008002DA607B681B68DA687B681B6842F045
:103F80004002DA60002300E0022318461437BD46E1
:103F90005DF8047B704780B582B000AF78607B68C5
:103FA0001B68DA687B681B6822F04002DA607B6875
:103FB000202283F841207868FCF7B6FE00231846DB
:103FC0000837BD4680BD80B58CB000AF78607B6897
:103FD00093F84230DBB2222B40F0AE807B689B68C6
:103FE000B3F5805F17D17B681B69002B13D10023C9
:103FF000FB627B689B6ABB627B681B685B689BB2E9
:10400000C3F308039AB2BB6A1A807B689B6A9A1C46
:104010007B689A6226E07B689B6AFB620023BB6236
:104020007B689B68B3F5805F07D07B689B68002B3B
:104030000AD17B681B69002B06D17B681B685B6813
:10404000DAB2FB6A1A7008E07B681B685B68DBB257
:1040500003F07F03DAB2FB6A1A707B689B6A5A1C12
:104060007B689A627B68DB8D9BB2013B9BB27A686E
:104070001946D185002B5DD17B681B68DA687B68A7
:104080001B6822F02002DA607B681B68DA687B68B4
:104090001B6822F48072DA607B681B685A697B684F
:1040A0001B6822F001025A617B68202283F84220BB
:1040B0007B6800225A637B681B6B012B35D17B68C0
:1040C00000221A637B681B680C337B617B6953E8B1
:1040D000003F3B613B6923F010037B627B681B68F8
:1040E0000C337A6A3A62FB61F9693A6A41E8002363
:1040F000BB61BB69002BE5D17B681B681B6803F0C3
:104100001003102B0AD10023FB607B681B681B681F
:10411000FB607B681B685B68FB60FB687B689B8D52
:1041200019467868FFF748FC02E07868FFF726FC3C
:10413000002302E0002300E0022318463037BD468A
:1041400080BD00002DE9B04FC0B000AFC7F8F4004B
:10415000D7F8F4305A68CF4B9A4204D940F67561CB
:10416000CD48FCF7DEFED7F8F430DB68002B0AD030
:10417000D7F8F430DB68B3F5005F04D040F6766121
:10418000C548FCF7CEFED7F8F4301B69002B10D0E1
:10419000D7F8F4301B69B3F5806F0AD0D7F8F43044
:1041A0001B69B3F5C06F04D040F67761BA48FCF7DD
:1041B000B8FED7F8F4305A694FF6F3731340002B6A
:1041C00004D1D7F8F4305B69002B04D140F6786154
:1041D000B148FCF7A6FED7F8F4301B681B6923F43E
:1041E0004050D7F8F430D968D7F8F4301A6840EA6C
:1041F00001031361D7F8F4309A68D7F8F4301B69DB
:104200001A43D7F8F4305B691A43D7F8F430DB6906
:104210001343C7F8F830D7F8F4301B68DB6823F491
:10422000164121F00C01D7F8F4301A68D7F8F830AD
:104230000B43D360D7F8F4301B685B6923F44070FC
:10424000D7F8F4309969D7F8F4301A6840EA0103D6
:104250005361D7F8F4301A68904B9A4205D0D7F8DA
:10426000F4301A688E4B9A4204D1FEF787FFC7F8E4
:10427000FC0003E0FEF76EFFC7F8FC00D7F8F4304F
:10428000DB69B3F5004F40F00F81D7F8FC30002216
:10429000C7F8E830C7F8EC20D7E93A4522462B4664
:1042A0009118B9655B41FB65D7E91623214612EBEE
:1042B0000108294643EB01094FF000024FF00003CB
:1042C0004FEAC90343EA58734FEAC8029046994639
:1042D000234618EB0303C7F8E0302B4649EB0303F2
:1042E000C7F8E430D7F8F4305B680022C7F8D8305C
:1042F000C7F8DC20D7E936120B46DB183B651346BE
:1043000042EB03037B65D7E91423D7E93801FBF7B8
:1043100067FF02460B46634BA3FB02235B091C01AC
:10432000D7F8FC300022C7F8D030C7F8D420D7E93E
:10433000348942464B469118B9645B41FB64D7E926
:104340001223414612EB010A494643EB010B4FF0A1
:1043500000024FF000034FEACB0343EA5A734FEADF
:10436000CA0292469B4643461AEB0303C7F8C8307D
:104370004B464BEB0303C7F8CC30D7F8F4305B68FF
:104380000022C7F8C030C7F8C420D7E930120B4666
:10439000DB183B64134642EB03037B64D7E910232D
:1043A000D7E93201FBF71CFF02460B4611463D4B95
:1043B000A3FB01235B09642202FB03F3CB1ADB009E
:1043C00003F13202374BA3FB02235B095B0003F4CA
:1043D000F8731C44D7F8FC300022C7F8B830C7F88F
:1043E000BC20D7E92E8942464B469118B9635B4100
:1043F000FB63D7E90E2341465118396349464B41C7
:104400007B634FF000024FF00003D7E90CAB594635
:10441000CB00514643EA51735146CA001046194633
:10442000034642469B18C7F8B0304B460A4642EB5B
:104430000303C7F8B430D7F8F4305B680022C7F83C
:10444000A830C7F8AC20D7E92A120B46DB18BB62AC
:10445000134642EB0303FB62D7E90A23D7E92C0199
:10446000FBF7BEFE02460B460E4BA3FB02135B0995
:10447000642101FB03F3D31ADB003233094AA2FBA8
:1044800003235B0903F00702D7F8F4301B682244CA
:104490009A6009E1A037A000906000080010014078
:1044A000001401401F85EB51D7F8FC300022C7F8FB
:1044B000A030C7F8A420D7E9288942464B46911876
:1044C00039625B417B62D7E908234146541849466B
:1044D00043EB01054FF000024FF00003EB0043EA0D
:1044E0005473E20014461D464346E318C7F898305B
:1044F0004B4645EB0303C7F89C30D7F8F4305B68B4
:104500000022C7F89030C7F894204FF000024FF017
:104510000003D7E9244529468B00214643EA9173DD
:1045200021468A00D7E92601FBF75AFE02460B46D0
:10453000604BA3FB02235B091C01D7F8FC3000226F
:10454000C7F88830C7F88C20D7E9228942464B4605
:104550009118B9615B41FB61D7E9062341465118C7
:10456000396149464B417B614FF000024FF0000337
:10457000D7E904AB5946CB00514643EA5173514643
:10458000CA0010461946034642469B18C7F88030B9
:104590004B460A4642EB0303C7F88430D7F8F430A1
:1045A0005B680022BB67FA674FF000024FF0000320
:1045B000D7E91E8949468B00414643EA917341463B
:1045C0008A00D7E92001FBF70BFE02460B46114695
:1045D000384BA3FB01235B09642202FB03F3CB1AD4
:1045E0001B013233334AA2FB03235B0903F0F003C0
:1045F0001C44D7F8FC3000223B677A67D7E91C8956
:1046000042464B469118B9605B41FB60D7E90223F3
:1046100041465118396049464B417B604FF00002DA
:104620004FF00003D7E900AB5946CB00514643EAAF
:1046300051735146CA0010461946034642469B181C
:10464000BB664B460A4642EB0303FB66D7F8F430E1
:104650005B6800223B667A664FF000024FF0000371
:10466000D7E9188949468B00414643EA9173414690
:104670008A00D7E91A01FBF7B3FD02460B460D4B42
:10468000A3FB02135B09642101FB03F3D31A1B0193
:104690003233084AA2FB03235B0903F00F02D7F869
:1046A000F4301B6822449A6000BF07F58077BD464E
:1046B000BDE8B08F1F85EB5180B500AF0E4B1B6876
:1046C0000D4A43F4007313600B4B1B680A4A43F412
:1046D00080631360084B1B68074A43F480731360C0
:1046E0000320FCF7BBFE002000F008F8FCF724FCD8
:1046F0000023184680BD00BF003C024080B582B058
:1047000000AF7860124B1A68124B1B7819464FF4B1
:104710007A73B3FBF1F3B2FBF3F31846FCF702FF35
:104720000346002B01D001230EE07B680F2B0AD833
:10473000002279684FF0FF30FCF7B0FE064A7B6834
:104740001360002300E0012318460837BD4680BDF2
:10475000040000200C0000200800002080B400AFFE
:10476000064B1B781A46064B1B681344044A136019
:1047700000BFBD465DF8047B704700BF0C00002001
:10478000680C002080B400AF034B1B681846BD4680
:104790005DF8047B704700BF680C002080B584B0D2
:1047A00000AF7860FFF7EEFFB8607B68FB60FB68E6
:1047B000B3F1FF3F05D00A4B1B781A46FB68134440
:1047C000FB6000BFFFF7DEFF0246BB68D31AFA6842
:1047D0009A42F7D800BF00BF1037BD4680BD00BF6A
:1047E0000C0000200EB400B59CB01DAB02900690EA
:1047F0006FF00041094807910491094953F8042BCF
:1048000005910068019302A900F0E0F9029B0022E3
:104810001A701CB05DF804EB03B070471000002064
:104820000802FFFF0EB430B59CB01FAC4FF401720C
:1048300054F8045BADF8142002900690FBF752FE8A
:104840000B4B039007900B930A48019400230F939E
:1048500014934FF6FF73ADF816302A46234602A98B
:10486000006800F007FB1CB0BDE8304003B07047A3
:1048700079480008100000200020704700B59BB068
:10488000009104916FF00041059102910549039157
:10489000694600F09BF9009B00221A701BB05DF87E
:1048A00004FB00BF0802FFFF13460A460146024808
:1048B0000068FFF7E3BF00BF10000020024403467A
:1048C000934200D1704703F8011BF9E7014B1868C8
:1048D000704700BF1000002070B50D4D0D4C641BDB
:1048E000A4100026A64209D10B4D0C4C01F0E0F8B3
:1048F000641BA4100026A64205D170BD55F8043BE8
:1049000098470136EEE755F8043B98470136F2E741
:104910008866000888660008886600088C660008BB
:104920007047704738B50546002941D051F8043C1E
:104930000C1F002BB8BFE41800F0E0F81D4A136804
:1049400033B9636014602846BDE8384000F0DCB835
:10495000A34208D9206821188B4201BF19685B68FF
:1049600009182160EDE71A465B680BB1A342FAD93A
:1049700011685018A0420BD120680144501883429E
:104980001160E0D118685B68536008441060DAE792
:1049900002D90C232B60D6E7206821188B4204BF74
:1049A00019685B68636004BF091821605460CAE736
:1049B00038BD00BFB00D002070B50F4E0C463168F9
:1049C000054611B900F034FF30602146284600F05A
:1049D0002FFF431C03D14FF0FF34204670BDC41C91
:1049E00024F00304A042F8D0211A284600F020FF4A
:1049F0000130F2D1EFE700BFAC0D00202DE9F84304
:104A0000CD1C25F0030508350C2D38BF0C25002DD5
:104A1000064601DBA94204D90C2333600020BDE81F
:104A2000F883DFF8D48000F069F8D8F800301C462D
:104A300044BB29463046FFF7BFFF431C044658D10C
:104A4000D8F800402746002F43D1002C4BD02368D4
:104A50003946304604EB030900F0EAFE814542D1B5
:104A600021686D1A29463046FFF7A6FF01303AD07B
:104A700023682B442360D8F800305A6862BBC8F81A
:104A800000700FE02268521B20D40B2A17D961193D
:104A9000A342256018BF5960636808BFC8F80010BA
:104AA00062514B60304600F02FF804F10B00231DDB
:104AB00020F00700C21A1CBF1B1AA350AFE76268A0
:104AC000A3420CBFC8F800205A60EBE72346646895
:104AD000AEE73C467F68B6E71A465B68A342FBD167
:104AE00000235360DEE70C233360304600F00CF8FF
:104AF00094E70560D6E700BFB00D00200148FFF73E
:104B00000FBF00BFA80D00200148FFF70ABF00BF7C
:104B1000A80D00202DE9F0478E681F46BE420B68A5
:104B200082460C4690462DD8B1F90C2012F4906FB5
:104B300026D06569096905EB4505A3EB010905EB7D
:104B4000D5757B1C4B446D109D4238BF1D465305E7
:104B500027D52946FFF752FF064660B321694A462A
:104B600000F076FEA38923F4906343F08003A381D1
:104B7000266165614E44A5EB09052660A5603E46A9
:104B8000BE4200D93E4620683246414600F035FE1E
:104B9000A3689B1BA3602368334423600020BDE807
:104BA000F0872A4600F062FE06460028E0D121691F
:104BB0005046FFF7B7FE0C23CAF80030A38943F034
:104BC0004003A3814FF0FF30E9E700002DE9F04FEB
:104BD00098468B891B069DB007460D46144610D596
:104BE0000B6973B94021FFF709FF2860286130B9CC
:104BF0000C233B604FF0FF301DB0BDE8F08F402329
:104C00006B610023099320238DF82930CDF80C80A7
:104C10003023DFF89C818DF82A304FF001092346BC
:104C20009A4613F8012B0AB1252AF9D1BAEB040BE5
:104C30000BD05B46224629463846FFF76BFF013012
:104C400000F0A780099A5A4409929AF80030002B84
:104C500000F09F8000234FF0FF32CDE905230AF1D9
:104C6000010A049307938DF853301A935446052292
:104C700014F8011B4E48FBF743FC049AD8B9D00640
:104C800044BF20238DF85330110744BF2B238DF8E8
:104C900053309AF800302A2B15D0079A544600203A
:104CA0004FF00A0C214611F8013B303B092B4BD940
:104CB000B0B1079214E0A0EB080309FA03F3134321
:104CC0000493A246D2E7039B191D1B680391002B96
:104CD000BBBF5B4242F0020207930793B8BF049246
:104CE00023782E2B0AD163782A2B32D1039B1A1DED
:104CF0001B68039243EAE37302340593DFF8C0A014
:104D0000217803225046FBF7FBFB38B1049BA0EB54
:104D10000A004022824013430134049314F8011B1B
:104D200024488DF828100622FBF7EAFB002836D02D
:104D3000214B1BBB039B073323F00703083303936B
:104D4000099B334409936AE70CFB02320C460120AD
:104D5000A8E700230134059319464FF00A0C2046BA
:104D600010F8012B303A092A03D9002BC6D005913F
:104D7000C4E70CFB012104460123F0E703AB0093D9
:104D80002A460E4B04A93846AFF30080421C064663
:104D9000D6D1AB895B063FF52DAF09982CE703AB65
:104DA00000932A46054B04A9384600F045FAEDE782
:104DB000316600083B66000800000000154B000843
:104DC0003766000838B54B1C144603D14FF0FF3549
:104DD000284638BD938923F0200393815368526B92
:104DE000CDB28AB1A26B9A4208DD23685A1E2260B6
:104DF00003F8015C636801336360E9E7214600F072
:104E0000C2FC0028F1D0E1E72169226841B191425A
:104E100006D212F8011CA94202D1013A2260EAE747
:104E2000C4E90F2304F1440363630323A36323460C
:104E300003F8465F23600123DEE710B50C46496B9B
:104E400069B104F14403994201D0FFF76BFD236C73
:104E500063600020606313B1E36B236010BD2369BE
:104E6000236000236360A38943F02003A3814FF0F4
:104E7000FF30F3E72DE9F0470C46ADF5227D002128
:104E8000CDE94411A549A0910DF10408A449A54F0D
:104E9000CDF818810646A19100931378002B00F0FD
:104EA0005881F95C11F0080102F1010519D063681D
:104EB000002B0FDD23681A78BA5C120701D42A464A
:104EC000EBE7459A0132459262680133013A62602C
:104ED0002360ECE7A19B2146304698470028E9D0A3
:104EE000EDE7252B12D099466368002B40F39380A1
:104EF000226813784B4540F02C816368013B636066
:104F0000459B0132013322604593D8E7419143919B
:104F100053782A2B02BF1023951C41930A22A946DD
:104F200019F8011BA1F13003092B1ED9DFF8F8A1F4
:104F300003225046FBF7E4FA38B1419AA0EB0A008D
:104F400001238340134341934D4615F8013B782BD1
:104F500006D8572B10D8252BC5D057D8002B65D095
:104F6000032347930A23429378E0439B02FB0311F8
:104F7000303943914D46D2E7A3F15802202AEFD8A9
:104F800001A151F822F000BF3B500008614F00081A
:104F9000614F000895500008614F0008614F0008FC
:104FA000614F0008614F0008614F0008614F000821
:104FB000614F0008AB5000089150000813500008E2
:104FC0001350000813500008614F00084D500008AE
:104FD000614F0008614F0008614F0008614F0008F1
:104FE000BB5000085550000833500008614F0008BE
:104FF000614F0008B7500008614F00089150000849
:10500000614F0008614F00083B500008453B022BF0
:10501000A6D8052321E0A19B2146304698470028C9
:105020003FF466AF4498002840F08B804FF0FF308B
:105030008BE0419A42F020024192419A42F4007280
:10504000419210226E2B429202D905E00023429336
:10505000032302E008234293042347936368002B51
:1050600039DD419B590604D423681A78BA5C1207CB
:1050700038D4479B022B47DC6B46224641A9304679
:1050800000F0FAF9012864D002287FF418AFC9E7CC
:105090000A22D7E72946404600F03CFB419B43F0FB
:1050A0004003419305460123D7E7419B43F040036A
:1050B00041930023D1E70223CFE74198C3063FF590
:1050C000FEAE009B459A191D00911B68C0074CBF9E
:1050D0001A801A60F3E6A19B2146304698470028C3
:1050E000BFD09FE7459A013245926268013A002A93
:1050F000626002DD01332360B6E7A19B21463046A2
:1051000098470028B0D08DE7042B0FDC6B46224671
:1051100041A9304600F00AFAB4E700BFC54D0008C7
:105120003B4E000831650008376600080A4B002B2B
:105130003FF4C5AE6B46224641A93046AFF300802E
:10514000A0E7A3895B063FF571AF0DF5227DBDE8B1
:10515000F0874498F9E700BF000000002DE9F04710
:10516000164698468A680B69DDF820909342B8BFCE
:105170001346336091F8432007460C460AB10133C9
:1051800033602368990642BF336802333360256871
:1051900015F0060506D104F1190AE36832689B1A76
:1051A000AB4226DC94F843302268003B18BF012351
:1051B00092062BD404F1430241463846C8470130D9
:1051C0001ED02368226903F00603042B02BFE568A2
:1051D0003368ED1AA3680CBF25EAE57500259342F4
:1051E000C4BF9B1AED1800261A34B5421AD100200C
:1051F00008E00123524641463846C847013003D1F2
:105200004FF0FF30BDE8F0870135C6E7E1185A1CC2
:10521000302081F84300224494F8451082F843106E
:105220000233C7E70123224641463846C8470130CA
:10523000E6D00136D9E700002DE9FF470F7E0C9E2E
:10524000782F914680460C469A4601F1430207D8D2
:10525000622F0AD8002F00F0D280582F00F0B980BA
:1052600004F1420684F842703AE0A7F16303152B7B
:10527000F6D801A151F823F0D1520008E5520008F8
:105280006152000861520008615200086152000832
:10529000E55200086152000861520008615200089E
:1052A00061520008E55300080F5300089F5300089F
:1052B000615200086152000807540008615200085A
:1052C0000F5300086152000861520008A7530008FC
:1052D00033681A1D1B68326004F1420684F84230BC
:1052E00001239DE033682068191D3160060601D551
:1052F0001D6803E04506FBD5B3F90050002D03DA25
:105300002D236D4284F8433059480A2311E0216867
:105310003368080653F8045B02D4490648BFADB2AF
:105320006F2F5348336014BF0A230823002184F8E9
:1053300043106668A660002EA2BF216821F0040118
:1053400021600DB9002E4BD01646B5FBF3F103FBDF
:105350001157C75D06F8017D2F46BB420D46F4D9B3
:10536000082B0BD12368DF0708D5236961689942B0
:10537000DEBF302306F8013C06F1FF36921B2261A6
:10538000CDF800A04B4603AA21464046FFF7E6FEB3
:1053900001304AD14FF0FF3004B0BDE8F0872368F8
:1053A00043F0200323603348782784F8457023684E
:1053B00031681F0651F8045B02D45F0648BFADB2E6
:1053C0003160D90744BF43F0200323601DB110238F
:1053D000ACE72748E9E7236823F020032360F6E7DA
:1053E0001646BDE7336825686169181D30602E06D2
:1053F0001B6801D5196002E06806FBD519800023FF
:1054000023611646BCE733681A1D32601E68626865
:1054100000213046FBF774F808B1801B60606368B8
:105420002361002384F84330AAE7236932464946C2
:105430004046D0470130ADD023689B0713D4E068C5
:10544000039B9842B8BF1846A6E701233246494657
:105450004046D04701309DD00135E36803995B1A7F
:10546000AB42F2DCEBE7002504F11906F5E700BFDB
:1054700042660008536600082DE9F84315468A681D
:1054800080460C4632B98A69002A14BF4FF0FF32B9
:1054900001228A602268DFF89090D1065FBF1A6807
:1054A000111D196016680027A06988B1012807D16D
:1054B0002B681A7863699B5C53B9002F31D022E0C6
:1054C000022820D12B681B7819F803301B071AD447
:1054D0002368DA065EBF2B681B7806F8013B2A6852
:1054E0006B6801322A60A268013B013A6B600137A8
:1054F000A26042B1002BD7DCD4F880312946404667
:1055000098470028D0D0236813F0100305D1E26833
:105510000132E260A26902B1337023693B44236126
:105520000020BDE8F88300BF316500082DE9F04F89
:105530009846744B0C468246164693E8070087B09F
:1055400003AB83E80700704BA169704A032908BFC9
:105550001A46A36801925A1EB2F5AE7F88BF6FF457
:10556000AE75274682BF03EB050940F25D13A360C9
:1055700057F81C3B43F4506398BF4FF00009236079
:105580003D464FF0000B316803AB097853F82B0010
:105590000222FAF7B5FF28B3BBF1010F59D16268B7
:1055A0002AB92268082142F40072616022602268F0
:1055B00022F4A0622260A268511EA16092B13268FA
:1055C000511C3160127805F8012B7268013A002AEB
:1055D000726007DCD4F8802131465046904700289D
:1055E00040F085800BF1010BBBF1030FCBD1636859
:1055F0000BB90A236360636845496069C91A00F002
:1056000089F84FF0000BA3682268002B3DD0316869
:10561000606991F800C010F80C00002835D0BCF18A
:10562000300F24D1100522D50BF1010BB9F1000F79
:1056300003D0013309F1FF39A3607368013B002BEC
:1056400073601BDD336801333360A368013BA360E3
:10565000D9E7BBF1020FAED1226802F4C061B1F507
:10566000007FBFD11021616042F48072A2E722F472
:10567000106222600B7805F8013BDEE7D4F8803138
:105680003146504698470028DFD02368D9050DD50C
:10569000BD4209D915F8011CD4F87C313246504678
:1056A000984705F1FF394D46BD4228D0226812F0D7
:1056B000100213D12A706368019E39465046B047E4
:1056C000D8F8003021681A1DC8F8002011F0200F0A
:1056D0001B680FD01860E3680133E3602369ED1B9A
:1056E0005D442B442361002007B0BDE8F08F4FF0EC
:1056F000000BCAE7CA074CBF18801860EBE701200F
:10570000F2E700BF04610008BD5900089D5A000877
:105710007466000870B50B7804465E2B0BBF4B789F
:105720004A1C8A1C002108BF0121013804F1FF0531
:1057300000F8011FA842FBD10BB9501E70BD81F0CB
:105740000101E1541046024612F8015B2D2D05D0EF
:105750005D2D16D0002DF1D02B46F2E746785D2E58
:10576000FAD0B342F8DC02301A4601329642A15414
:10577000FBDCF21A013A5D1CB342A8BF0022AB1851
:10578000E1E71046DAE72DE9F0410C46496B04F1F8
:10579000440399421DD14FF48061FFF72FF918B9E6
:1057A0004FF0FF30BDE8F0814FF48063A36394F8BD
:1057B0004630606380F8FF3394F8453080F8FE335C
:1057C00094F8443080F8FD3300F2FD302060002072
:1057D000E8E7A66B77003A4600F048F8054600284F
:1057E000DED000EB060801463246404600F030F8B5
:1057F000C4E90D57C4F80080E9E7884210B501EB11
:10580000020402D98442234607D8431EA14208D08D
:1058100011F8012B03F8012FF8E7024401468A42F0
:1058200000D110BD13F8014D02F8014DF7E700005B
:1058300038B5064D0023044608462B60FBF7ECFB09
:10584000431C02D12B6803B1236038BDA40D002096
:105850000A44914200F1FF3300D1704710B511F8AE
:10586000014B03F8014F9142F9D110BD2DE9F041F0
:10587000804615460C4621B9BDE8F0411146FFF7B8
:10588000BDB82AB9FFF74EF800242046BDE8F081E4
:1058900000F006F98542064602D8B5EB500FF4D861
:1058A00029464046FFF7AAF807460028ECD0B54243
:1058B0002A46214628BF3246FFF7CAFF2146404606
:1058C000FFF730F83C46E0E7242B2DE9F047864609
:1058D000904601D8012B06D1FEF7F8FF162303608E
:1058E0000020BDE8F08734480D462A4615F8014BE4
:1058F000065D16F00806F8D12D2C2DD12C78012646
:10590000951C33F0100209D1302C2AD12A7802F0EC
:10591000DF02582A25D16C781023023506F1004C9D
:105920000CF1FF3C0022BCFBF3F9104603FB19CA43
:10593000A4F13007092F1BD83C46A34227DD571C92
:1059400007D0814520D301D1A2451DDB00FB0340D8
:10595000012215F8014BEBE72B2C04BF2C78951C8A
:10596000CFE7002BDAD1302C0CBF08230A23D5E770
:10597000A4F14107192F01D8373CDEE7A4F16107F4
:10598000192F04D8573CD8E74FF0FF32E1E7531CFA
:1059900008D12223CEF800306046B8F1000FA0D025
:1059A000691E06E006B14042B8F1000F99D0002A06
:1059B000F6D1C8F8001094E731650008FFF784BFFE
:1059C0002DE9F043344E86460D46284615F8014B26
:1059D000375D17F00807F8D12D2C2FD12C7801272F
:1059E000851C33F0100009D1302C2CD1287800F020
:1059F000DF00582827D16C78102302354FF0FF388C
:105A00000026B8FBF3F803FB08F96FEA09093046F2
:105A1000A4F1300CBCF1090F1CD86446A3422ADD66
:105A2000B6F1FF3F07D0804522D301D1A1451FDB4E
:105A300000FB0340012615F8014BE9E72B2C04BFBE
:105A40002C78851CCDE7002BD8D1302C0CBF082337
:105A50000A23D3E7A4F1410CBCF1190F01D8373C5C
:105A6000DCE7A4F1610CBCF1190F04D8573CD5E771
:105A70004FF0FF36DFE7731C06D12223CEF800304B
:105A8000304632B9BDE8F08307B14042002AF9D070
:105A900006B1691E1160F5E731650008FFF790BF98
:105AA00051F8043C181F002BBCBF0B58C01870479E
:105AB000F8B500BFF8BC08BC9E467047F8B500BFFB
:085AC000F8BC08BC9E467047CB
:105AC80054424400554E4B4E4F574E004C4F575F73
