:020000040800F2
:1000000000000220FD140008311200083712000819
:100010003D120008431200084912000800000000C9
:10002000000000000000000000000000811800082F
:100030004F12000800000000D11A0008391B000808
:100040004D1500084D1500084D1500084D15000808
:100050004D1500084D1500084D1500084D150008F8
:100060004D1500084D1500084D1500084D150008E8
:100070004D1500084D1500084D1500084D150008D8
:100080005D120008711200084D1500080000000004
:100090000000000000000000000000004D150008F6
:1000A0004D1500084D150008851200084D15000873
:1000B0004D1500084D1500084D1500084D15000898
:1000C0004D1500084D1500084D1500084D15000888
:1000D0004D1500084D150008991200080000000099
:1000E0004D1500084D1500084D15000800000000D2
:1000F0000000000000000000000000004D15000896
:10010000000000004D1500084D1500084D150008B1
:1001100000000000000000000000000000000000DF
:100120004D1500084D1500084D1500084D15000827
:100130004D15000800000000000000000000000055
:100140000000000000000000000000004D15000845
:100150004D1500084D1500084D1500084D150008F7
:100160004D1500084D1500080000000000000000BB
:10017000000000000000000000000000000000007F
:10018000000000004D150008000000000000000005
:080190004D1500084D15000893
:1001A00010B5054C237833B9044B13B10448AFF3B1
:1001B00000800123237010BD6000002000000000BB
:1001C000688C000808B5034B1BB103490348AFF323
:1001D000008008BD0000000064000020688C00085A
:1001E000F0B400EB4003DFF8880000EBC30000F13F
:1001F00018063069F7687568874232D3B368DC1B2C
:10020000631E934214D37D19D01900BF11F8013B2E
:1002100005F8013B013A05D011F8013B05F8013B17
:10022000013AF3D1BFF35F8FF0600120F0BC70475B
:10023000C018904219D37819121B11F8013B00F82D
:10024000013B013CF9D1141C05D011F8013B05F824
:10025000013B013AF9D1BFF35F8FF4600120F0BC9C
:100260007047C01B01389042CDD20020F0BC7047CF
:10027000A84C002053B94AB9002908BF00281CBF68
:100280004FF0FF314FF0FF3000F06AB9ADF1080CCC
:100290006DE904CE00F006F8DDF804E0DDE90223A4
:1002A00004B070472DE9F047089D0C46002B4ED155
:1002B00094468C458646B2FA82F262D94AB1C2F1BE
:1002C0002003914020FA03F30CFA02FC194300FAD0
:1002D00002FE4FEA1C471FFA8CF6B1FBF7F44FEA17
:1002E0001E4307FB141143EA014304FB06F1994244
:1002F0000AD91CEB030304F1FF3080F0128199420C
:1003000040F20F81023C6344591A1FFA8EF3B1FB8D
:10031000F7F007FB101143EA014300FB06F69E428B
:100320000AD91CEB030300F1FF3180F0FC809E42F0
:1003300040F2F980634402389B1B40EA04400021EC
:100340001DB1D3400022C5E90032BDE8F0878B42E1
:1003500005D90DB1C5E9000100210846F5E7B3FA5A
:1003600083F1002946D1A34202D39042C0F0F0802D
:10037000861A64EB03030120002DE6D0C5E9006373
:10038000E3E7002A40F09080A1EB0C044FEA1C4800
:100390001FFA8CF70121B4FBF8F64FEA1E4308FB65
:1003A000164443EA044307FB06F0984208D91CEBC5
:1003B000030306F1FF3402D2984200F2CD802646B4
:1003C0001C1A1FFA8EF3B4FBF8F008FB104443EA42
:1003D000044300FB07F79F4208D91CEB030300F11D
:1003E000FF3402D29F4200F2B0802046DB1B40EA7D
:1003F0000640A5E7C1F120068B4022FA06F71F430D
:1004000020FA06FC04FA01F343EA0C03F44000FA74
:1004100001F8380C4FEA1349B4FBF0FE1FFA87FCD1
:1004200000FB1E4449EA04440EFB0CF9A14502FA04
:1004300001F20AD93C190EF1FF3A80F08480A145FF
:1004400040F28180AEF1020E3C44A4EB09041FFA95
:1004500083F9B4FBF0F300FB134449EA044403FBC3
:100460000CFCA44507D93C1903F1FF3067D2A44521
:1004700065D9023B3C4443EA0E40A0FB0293A4EB47
:100480000C049C42CE469C4651D34ED055B1B8EB9D
:100490000E0364EB0C0404FA06F6CB401E43CC407A
:1004A000C5E90064002150E7C2F1200320FA03F1FE
:1004B0000CFA02FC24FA03F394400C434FEA1C4864
:1004C00000FA02FE1FFA8CF7B3FBF8F008FB1031BC
:1004D000230C43EA014300FB07F1994208D91CEBC6
:1004E000030300F1FF362CD299422AD90238634423
:1004F0005B1AA4B2B3FBF8F108FB113344EA0344DE
:1005000001FB07F3A34208D91CEB040401F1FF36F9
:1005100013D2A34211D902396444E41A41EA0041DA
:1005200039E70446F0E6084606E7C845AED2B9EB1F
:10053000020E63EB070C0138A8E73146EDE70346EE
:1005400099E73046D4E7D6467FE7634402384DE763
:100550000646234608460FE7023E634430E700BFE5
:10056000704700BF10F8012B11F8013B012A28BF8A
:100570009A42F7D0D01A7047034613F8012B002A8D
:10058000FBD1181A0138704700000000000000007D
:1005900001F0FF01102A2BDB10F0070F08D010F834
:1005A000013B013A8B422DD010F0070F42B3F6D138
:1005B000F0B441EA012141EA014122F007047FF051
:1005C00000070023F0E80256083C85EA010586EAA8
:1005D000010685FA47F5A3FA87F586FA47F6A5FAE4
:1005E00087F68EB9EED1F0BC01F0FF0102F00702F0
:1005F00032B110F8013B013A83EA010313B1F8D19B
:100600000020704701387047002D06BF354603387B
:10061000073815F0010F07D1013015F4807F02BFB4
:10062000013015F4C03F0130F0BC0138704700BF05
:100630000FB480B582B000AF07F114037B607A6815
:1006400039690E4807F0A6F90346002B0FDD0B4869
:10065000FFF792FF03461A46094BC3F89821084B4F
:10066000D3F898311946054800F02EF800E000BF95
:100670000837BD46BDE8804004B0704748010020FF
:100680007C00002080B500AF4FF4807209490A4811
:1006900005F07CFF094B1B681A68084B1B6822F0A9
:1006A0001C021A604FF400620549064800F03AF84F
:1006B00000BF80BD180200204C0E0020940E0020C8
:1006C00018030020CC0D002080B584B000AF786006
:1006D00039603A687968114800F045F80346002B04
:1006E00016D10F4B93F84130DBB2202B0ED107F11E
:1006F00008030A49184600F07BF8BB68FA6892B212
:100700001946074805F0D2FE002302E0012300E06D
:10071000012318461037BD4680BD00BFCC0D002018
:100720004C0E002080B485B000AFF860B9607A60EC
:10073000BB68002B10D0FB68BA681A61FB687A6846
:100740001A60FB6800225A60FB6800229A60FB680E
:100750000022DA60002300E0012318461437BD466A
:100760005DF8047B704780B489B000AFF860B96071
:100770007A6000237B610023FB61FB689B68BB619F
:10078000FB681A68FB685B68D31A7B617A697B68CF
:100790009A4226DB0023FB6114E0FB69BA681A4425
:1007A000FB681969BB69581CB8610B4412781A7050
:1007B000FB681B68BA699A4201DB0023BB61FB69D5
:1007C0000133FB61FA697B689A42E6DBFB68BA6930
:1007D0009A60FB685A687B681A44FB685A60002379
:1007E00000E0012318462437BD465DF8047B7047BE
:1007F00080B489B000AF786039603B681B68FB61EA
:100800003B685B68BB613B68DB687B61BB69002B55
:1008100028DD7A69BB691A44FB699A4202DABB692E
:100820003B6103E0FA697B69D31A3B613B681B6952
:100830007A691344BB603B69FB603B69BA69D31AB0
:10084000BB613A697B6913447B617A69FB699A42AF
:1008500001DB00237B61BA693B685A607A693B68B7
:10086000DA6003E00023BB600023FB607B681A466C
:1008700007F1080393E8030082E80300786824374F
:10088000BD465DF8047B704780B483B000AF264B53
:100890005B6F002B02DA0123FB7137E0224B5B6FA9
:1008A00003F08043002B02D00223FB712EE01E4B8D
:1008B0005B6F03F00053002B02D00323FB7125E094
:1008C000194B5B6F03F08053002B02D00423FB71A4
:1008D0001CE0154B5B6F03F00063002B02D0052377
:1008E000FB7113E0104B5B6F03F08063002B02D0B1
:1008F0000623FB710AE00C4B5B6F03F00073002BC7
:1009000002D00723FB7101E00023FB71064B5B6FF4
:10091000054A43F080735367FB7918460C37BD4690
:100920005DF8047B704700BF0038024080B485B09A
:1009300000AF0346FB711D4BFB60FB79072B2BD8E7
:1009400001A252F823F000BF690900086F090008EE
:10095000750900087B09000881090008870900085B
:100960008D09000893090008114BFB6017E0114B3B
:10097000FB6014E0104BFB6011E0104BFB600EE0DD
:100980000F4BFB600BE00F4BFB6008E00E4BFB6076
:1009900005E00E4BFB6002E0054BFB6000BFFB680F
:1009A00018461437BD465DF8047B7047808C0008FC
:1009B000848C00088C8C00089C8C0008B48C000887
:1009C000D08C0008E08C0008FC8C0008188D000812
:1009D00080B487B000AFF860B9607A607B684FF090
:1009E000FF321A6000237B6100237B6117E07B6884
:1009F0001B681B0EFB74FA687B6913441A78FB7C36
:100A00005340FB747B681B681A02FB7C094951F850
:100A100023305A407B681A607B6901337B617A69B5
:100A2000BB689A42E3D300BF00BF1C37BD465DF8E8
:100A3000047B70476893000880B485B000AF002342
:100A4000FB73404BBB60404B7B60404B3B603B6863
:100A50001B68190EFB7B5A1CFA731A46C9B23C4B31
:100A600099543B681B68190CFB7B5A1CFA731A4695
:100A7000C9B2374B99543B681B68190AFB7B5A1C57
:100A8000FA731A46C9B2324B99543B681968FB7B1A
:100A90005A1CFA731A46C9B22D4B99547B681B68CD
:100AA000190EFB7B5A1CFA731A46C9B2284B99548B
:100AB0007B681B68190CFB7B5A1CFA731A46C9B277
:100AC000234B99547B681B68190AFB7B5A1CFA73E9
:100AD0001A46C9B21E4B99547B681968FB7B5A1C95
:100AE000FA731A46C9B21A4B9954BB681B68190E9F
:100AF000FB7B5A1CFA731A46C9B2154B9954BB6852
:100B00001B68190CFB7B5A1CFA731A46C9B2104BAE
:100B10009954BB681B68190AFB7B5A1CFA731A4666
:100B2000C9B20B4B9954BB681968FB7B5A1CFA730A
:100B30001A46C9B2064B995400BF1437BD465DF83A
:100B4000047B7047107AFF1F147AFF1F187AFF1F6B
:100B5000180B0020B0B598B002AF786000233B6559
:100B60002B4B07F108041D460FCD0FC40FCD0FC44A
:100B700095E80F0084E80F0007F1480107F13802FB
:100B800007F14C0300930B462249234806F0C0FEB0
:100B900007F1400107F1440207F13C0300930B46C3
:100BA0001E491F4806F0B4FE00233B6514E03B6D70
:100BB0009B0058333B4453F8502C07F1380311463F
:100BC0001846FFF7CFFC0346002B02D13B6D0133E3
:100BD0007B653B6D01333B653B6D0B2BE7DDB86CF3
:100BE000FA6C104B83FB02135911D317CB1A6421F3
:100BF00001FB03F3D31A7A6C019200937B6D0246DA
:100C00000949786806F064FE00BF5837BD46B0BD9C
:100C1000B08D0008308D00083C8D0008488D00081C
:100C2000548D00081F85EB51608D00082DE9F041BF
:100C300090B00AAF78613961FA60BB603248FFF763
:100C4000F7FC3248FFF7F4FC002301220021304872
:100C5000FFF7EEFC79692F48FFF7EAFC39692E4867
:100C6000FFF7E6FC2D48FFF7E3FC2D48FFF7E0FC1B
:100C7000FB681B789C46FB6801331B789E46FB682B
:100C800002331B789846FB6803331B781A46FB68CF
:100C900004331B781946FB6805331B781846FB683C
:100CA00006331B781C46FB6807331B781D46FB6820
:100CB00008331B781E46FB6809331B787B60FB6892
:100CC0000A331B783B60FB680B331B7808933B6847
:100CD00007937B680693059604950394029001910F
:100CE00000924346724661460E48FFF7A1FCB96880
:100CF0000D48FFF79DFC0D48FFF79AFC00BF183721
:100D0000BD46BDE8F08100BFE08D0008F48D00080D
:100D10003C8E00086C8E0008948E0008BC8E000883
:100D2000048F0008488F00088C8F0008A88F0008E7
:100D300080B582B000AF00237B60104B1B6B0F4A65
:100D400043F4001313630D4B1B6B03F400137B6020
:100D50007B6800220521102003F002F9102003F027
:100D60002BF900220521112003F0FAF8112003F0DD
:100D700023F900BF0837BD4680BD00BF00380240E0
:100D800080B485B000AFF860B9607A60FB68074A4C
:100D90001A60BB68064A1A607B6880221A6000BF2E
:100DA0001437BD465DF8047B704700BF2C0B002054
:100DB000CC0B0020B0B588B000AF0A4B3C1D1D46DF
:100DC0000FCD0FC495E8070084E807003B1D002104
:100DD000184600F0DBFB0346034A136000BF2037D0
:100DE000BD46B0BDF88F0008280B002080B582B04A
:100DF00000AF7860012000F015FCFBE780B58AB0F9
:100E000000AF07F1140300221A605A609A60DA609A
:100E10001A6100233B612D4B1B6B2C4A43F00403EA
:100E200013632A4B1B6B03F004033B613B690023F4
:100E3000FB60264B1B6B254A43F080031363234B57
:100E40001B6B03F08003FB60FB680023BB601F4B40
:100E50001B6B1E4A43F0010313631C4B1B6B03F017
:100E60000103BB60BB6800237B60184B1B6B174AF8
:100E700043F002031363154B1B6B03F002037B600B
:100E80007B6800222021124804F0C2F84FF400537E
:100E90007B614FF40413BB610023FB6107F1140372
:100EA00019460C4803F01CFE20237B610123BB6123
:100EB0000023FB6100233B6207F114031946044839
:100EC00003F00EFE00BF2837BD4680BD003802404B
:100ED000000002400008024080B584B000AF786096
:100EE0007B680A4A93420CD107F108030849184667
:100EF000FFF77EFCBB68FA6892B21946034805F01A
:100F0000D5FA00BF1037BD4680BD00BF4C0E002093
:100F1000CC0D002080B500AF06F098FC00F038F84A
:100F2000FFF7B2FC03461A46144B1A70FFF766FF30
:100F3000FFF7FEFE00F002FAFFF7A4FB0F4B1B7851
:100F40001846FFF7F3FC03460D4A1360FFF774FDE4
:100F50000C4A0C210C48FFF73BFD0C48FFF7FAFD4B
:100F6000074B1868074B1B68074A0849FFF75EFEE6
:100F7000FFF720FF00F003FBFEE700BFE00D0020BD
:100F8000FC0D0020240B0020180B0020E40D002095
:100F900080B594B000AF07F120033022002118463D
:100FA00006F012FD07F10C0300221A605A609A60E5
:100FB000DA601A610023BB60284B1B6C274A43F0A0
:100FC00080531364254B1B6C03F08053BB60BB68DC
:100FD00000237B60224B1B68214A43F4404313608B
:100FE0001F4B1B6803F440437B607B6802233B621A
:100FF0000123FB6210233B630223BB630023FB63DB
:1010000010233B644FF4A8737B640423BB64042364
:10101000FB6407F12003184604F026F80346002B72
:1010200001D000F031F80F23FB6002233B61002365
:101030007B614FF48053BB610023FB6107F10C031C
:101040000221184604F03CFB0346002B01D000F0BF
:101050001BF800BF5037BD4680BD00BF00380240BE
:101060000070004080B582B000AF78607B681B687C
:10107000044A934201D106F00BFC00BF0837BD467D
:1010800080BD00BF0048014080B400AF72B600BF11
:10109000FEE780B483B000AF7860396000BF0C37E2
:1010A000BD465DF8047B704780B485B000AF7860C2
:1010B0007B6803F00703FB600C4BDB68BB60BA681E
:1010C0004FF6FF031340BB60FB681A02BB68134373
:1010D00043F0BF6343F40033BB60044ABB68D36092
:1010E00000BF1437BD465DF8047B704700ED00E09B
:1010F00080B582B000AF00237B60134B5B6C124A5B
:1011000043F480435364104B5B6C03F480437B6077
:101110007B6800233B600C4B1B6C0B4A43F08053F5
:101120001364094B1B6C03F080533B603B68002247
:101130000F216FF0010002F013FF0020FFF7B4FF52
:1011400000BF0837BD4680BD0038024080B58CB076
:1011500000AF78600023BB6200237B620023BB608A
:101160002E4B5B6C2D4A43F4802353642B4B5B6CFA
:1011700003F48023BB60BB6807F10C0207F1100386
:101180001146184604F064FD04F04EFDB862BB6AD7
:10119000234AA2FB03239B0C013B7B62214B224A87
:1011A0001A60204B40F2E732DA601E4A7B6A5360D5
:1011B0001C4B00221A611B4B00229A60194B002223
:1011C0009A61184804F08AFD034687F82F3097F893
:1011D0002F30002B1BD1134804F078FE034687F80C
:1011E0002F3097F82F30002B11D11A2002F0E4FE97
:1011F0007B680F2B08D8002279681A2002F0B0FE15
:101200000A4A7B68136002E0012387F82F3097F8C1
:101210002F3018463037BD4680BD00BF0038024031
:1012200083DE1B43000E0020004801400800002020
:1012300080B400AFFEE780B400AFFEE780B400AF3B
:10124000FEE780B400AFFEE780B400AFFEE780B4F5
:1012500000AF00BFBD465DF8047B704780B500AFAE
:10126000024803F0D3F900BF80BD00BF940E0020F8
:1012700080B500AF024803F0C9F900BF80BD00BFD0
:10128000F40E002080B500AF024804F0B1FE00BFAC
:1012900080BD00BF000E002080B500AF024805F001
:1012A0009BF900BF80BD00BF4C0E002080B586B00A
:1012B00000AF7860144A154BD31A7B617B693B61A0
:1012C000134B1B68002B02D1114B124A1A60104BB2
:1012D0001A687B6813443A699A4207D206F0D2FB37
:1012E00003460C221A604FF0FF3309E0084B1B68DD
:1012F000FB60074B1A687B681344054A1360FB6860
:1013000018461837BD4680BD0000022000040000CA
:10131000480E00206854002080B400AF064BD3F87C
:101320008830054A43F47003C2F8883000BFBD46D8
:101330005DF8047B704700BF00ED00E080B500AFB2
:10134000114B124A1A60104B4FF4E1325A600E4BA7
:1013500000229A600C4B0022DA600B4B00221A61CB
:10136000094B0C225A61084B00229A61064B00225D
:10137000DA61054804F0E0FF0346002B01D0FFF7D7
:1013800083FE00BF80BD00BF4C0E00200044004023
:1013900080B58AB000AF786007F1140300221A60AC
:1013A0005A609A60DA601A617B681B684C4A934203
:1013B00040F0918000233B614A4B1B6C494A43F447
:1013C00000331364474B1B6C03F400333B613B69F0
:1013D0000023FB60434B1B6B424A43F00103136342
:1013E000404B1B6B03F00103FB60FB680C237B612C
:1013F0000223BB610023FB6103233B6207237B6263
:1014000007F114031946384803F06AFB374B384A92
:101410001A60364B4FF000625A60344B00229A60DB
:10142000324B0022DA60314B4FF480621A612F4B4D
:1014300000225A612D4B00229A612C4B4FF480728E
:10144000DA612A4B00221A62284B00225A6227488E
:1014500002F0CAFD0346002B01D0FFF715FE7B68A2
:10146000224ADA63214A7B689363224B224A1A603C
:10147000204B4FF000625A601E4B40229A601D4B79
:101480000022DA601B4B4FF480621A61194B002274
:101490005A61184B00229A61164B0022DA61154BF3
:1014A00000221A62134B00225A62124802F09CFD7D
:1014B0000346002B01D0FFF7E7FD7B680D4A9A63D6
:1014C0000C4A7B68936300220521262002F048FD28
:1014D000262002F071FD00BF2837BD4680BD00BF49
:1014E000004400400038024000000240940E0020FA
:1014F00088600240F40E0020A0600240DFF834D083
:10150000FFF70AFF0C480D490D4A002302E0D458AA
:10151000C4500433C4188C42F9D30A4A0A4C00233D
:1015200001E013600432A242FBD306F0B1FAFFF7E8
:10153000F1FC704700000220000000206000002045
:10154000089900086000002064540020FEE780B481
:1015500085B000AF0346FB800023FB60B7F906307F
:10156000842B05D0B7F90620FB6813440333FB60D6
:10157000FB6818461437BD465DF8047B704780B59C
:1015800000AF00F013FF0023184680BDF0B589B00E
:1015900004AF786039607B685B69002B20D07B6882
:1015A0009B69002B1CD07B685C687B681D687B682E
:1015B0001E697B68B3F908301846FFF7C8FF01467B
:1015C0007B685B697A6892690292019300913B683B
:1015D00032462946204600F0E9FC0346FB601CE049
:1015E0007B685C687B681D687B681B699EB27B6852
:1015F000B3F908301846FFF7AAFF024607F10C03BB
:10160000019300923B6832462946204600F02BFDAC
:101610000346012B01D0002300E0FB681846143775
:10162000BD46F0BD80B584B000AF78607B68FB60DC
:10163000FB68002B01D0FB6800E00123184600F096
:101640007DFE002318461037BD4680BD80B483B0B0
:1016500000AF78607B6803F108027B685A607B68A2
:101660004FF0FF329A607B6803F108027B68DA6012
:101670007B6803F108027B681A617B6800221A60AC
:1016800000BF0C37BD465DF8047B704780B483B063
:1016900000AF78607B6800221A6100BF0C37BD463E
:1016A0005DF8047B704780B485B000AF7860396026
:1016B0007B685B68FB603B68FA685A60FB689A6805
:1016C0003B689A60FB689B683A685A60FB683A68B6
:1016D0009A603B687A681A617B681B685A1C7B6851
:1016E0001A6000BF1437BD465DF8047B704780B4B4
:1016F00085B000AF786039603B681B68BB60BB6831
:10170000B3F1FF3F03D17B681B69FB600CE07B6892
:101710000833FB6002E0FB685B68FB60FB685B68AA
:101720001B68BA689A42F6D2FB685A683B685A60EE
:101730003B685B683A689A603B68FA689A60FB6845
:101740003A685A603B687A681A617B681B685A1C61
:101750007B681A6000BF1437BD465DF8047B704794
:1017600080B485B000AF78607B681B69FB607B68E4
:101770005B687A6892689A607B689B687A6852684E
:101780005A60FB685B687A689A4203D17B689A6802
:10179000FB685A607B6800221A61FB681B685A1E4E
:1017A000FB681A60FB681B6818461437BD465DF875
:1017B000047B704780B485B000AFF860B9607A6090
:1017C000FB68043BFB60FB684FF080721A60FB68AB
:1017D000043BFB60BB6823F00102FB681A60FB68F6
:1017E000043BFB600C4AFB681A60FB68143BFB601F
:1017F0007A68FB681A60FB68043BFB60FB686FF06B
:1018000002021A60FB68203BFB60FB681846143735
:10181000BD465DF8047B70471D18000880B485B094
:1018200000AF00237B60124B1B68B3F1FF3F0AD06F
:101830004FF0500383F31188BFF36F8FBFF34F8FC7
:10184000FB6000BFFEE74FF0500383F31188BFF346
:101850006F8FBFF34F8FBB6000BF00BF7B68002B53
:10186000FCD000BF00BF1437BD465DF8047B704755
:101870000400002000000000000000000000000044
:10188000074B19680868B0E8F04F80F30988BFF388
:101890006F8F4FF0000080F311887047AFF3008026
:1018A0007C4B002000BF00BF08480068006880F340
:1018B00008884FF0000080F3148862B661B6BFF369
:1018C0004F8FBFF36F8F00DF00BF00BF08ED00E058
:1018D00080B586B000AF464B1B68464A93420AD19A
:1018E0004FF0500383F31188BFF36F8FBFF34F8F17
:1018F0003B6100BFFEE73E4B1B683F4A93420AD163
:101900004FF0500383F31188BFF36F8FBFF34F8FF6
:10191000FB6000BFFEE7394B7B617B691B78DBB264
:101920007B607B69FF221A707B691B78DBB2FB70DE
:10193000FB78DBB203F05003DAB2314B1A70314B53
:1019400007221A6009E02F4B1B68013B2D4A1360E8
:10195000FB78DBB25B00DBB2FB70FB78DBB203F041
:101960008003802BEFD0274B1B68C3F10703042BA8
:101970000AD04FF0500383F31188BFF36F8FBFF38A
:101980004F8FBB6000BFFEE71E4B1B681B021D4A4A
:1019900013601C4B1B6803F4E0631A4A13607B68F6
:1019A000DAB27B691A70184B1B68174A43F470034C
:1019B0001360154B1B68144A43F07043136000F02A
:1019C000DDF8124B00221A6000F0FCF8104B1B6887
:1019D0000F4A43F040431360FFF766FF00F0CCFE70
:1019E000FFF71CFF002318461837BD4680BD00BF17
:1019F00000ED00E071C20F4170C20F4100E400E051
:101A0000540F0020580F002020ED00E004000020BB
:101A100034EF00E080B483B000AF4FF0500383F3A5
:101A20001188BFF36F8FBFF34F8F7B6000BF0F4BE9
:101A30001B6801330D4A13600C4B1B68012B0FD13F
:101A40000B4B1B68DBB2002B0AD04FF0500383F323
:101A50001188BFF36F8FBFF34F8F3B6000BFFEE76E
:101A600000BF0C37BD465DF8047B704704000020C2
:101A700004ED00E080B483B000AF124B1B68002B74
:101A80000AD14FF0500383F31188BFF36F8FBFF378
:101A90004F8F7B6000BFFEE70A4B1B68013B094A82
:101AA0001360084B1B68002B05D100233B603B688B
:101AB00083F3118800BF00BF0C37BD465DF8047B7F
:101AC000704700BF0400002000000000000000007C
:101AD000EFF30980BFF36F8F154B1A681EF0100FDC
:101AE00008BF20ED108A20E9F04F10602DE90900B1
:101AF0004FF0500080F31188BFF34F8FBFF36F8F0B
:101B000000F03AFE4FF0000080F3118809BC19681C
:101B10000868B0E8F04F1EF0100F08BFB0EC108A54
:101B200080F30988BFF36F8F704700BFAFF3008069
:101B30007C4B002000BF00BF80B582B000AF4FF0EB
:101B4000500383F31188BFF36F8FBFF34F8F7B6018
:101B500000BF00F055FD0346002B03D0064B4FF0AD
:101B600080521A6000233B603B6883F3118800BFFA
:101B700000BF0837BD4680BD04ED00E080B400AF73
:101B80000B4B00221A600B4B00221A600A4B1B6899
:101B90000A4AA2FB03239B09094A013B1360044B39
:101BA00007221A6000BFBD465DF8047B704700BF86
:101BB00010E000E018E000E000000020D34D6210CB
:101BC00014E000E0DFF80C00016841F470010160EE
:101BD000704700BF88ED00E080B58AB000AF786044
:101BE0000023FB6100F05EFC5B4B1B68002B01D106
:101BF00000F020F9594B1A687B681340002B40F025
:101C000093807B68002B1DD008227B6813447B6087
:101C10007B6803F00703002B14D07B6823F00703D5
:101C200008337B607B6803F00703002B0AD04FF07A
:101C3000500383F31188BFF36F8FBFF34F8F7B6126
:101C400000BFFEE77B68002B6ED0454B1B687A68AF
:101C50009A4269D8434B3B62424B1B687B6204E06B
:101C60007B6A3B627B6A1B687B627B6A5B687A6823
:101C70009A4203D97B6A1B68002BF1D1364B1B6853
:101C80007A6A9A4250D03B6A1B6808221344FB616F
:101C90007B6A1A683B6A1A607B6A5A687B68D21A48
:101CA00008235B009A421FD97A6A7B681344BB61A0
:101CB000BB6903F00703002B0AD04FF0500383F3F6
:101CC0001188BFF36F8FBFF34F8F3B6100BFFEE7FB
:101CD0007B6A5A687B68D21ABB695A607B6A7A68E9
:101CE0005A60B86900F008F91D4B1A687B6A5B6896
:101CF000D31A1B4A13601A4B1A681B4B1B689A4273
:101D000003D2174B1B68184A13607B6A5A68134B3F
:101D10001B681A437B6A5A607B6A00221A60134B65
:101D20001B680133114A136000F0CAFBFB6903F022
:101D30000703002B0AD04FF0500383F31188BFF341
:101D40006F8FBFF34F8FFB6000BFFEE7FB69184644
:101D50002837BD4680BD00BF644B0020784B002073
:101D6000684B00205C4B00206C4B0020704B002027
:101D700080B586B000AF78607B687B617B68002BA4
:101D80004DD008235B427A6913447B617B693B61D8
:101D90003B695A68244B1B681340002B0AD14FF053
:101DA000500383F31188BFF36F8FBFF34F8FFB6036
:101DB00000BFFEE73B691B68002B0AD04FF05003C1
:101DC00083F31188BFF36F8FBFF34F8FBB6000BFEA
:101DD000FEE73B695A68144B1B681340002B1ED06A
:101DE0003B691B68002B1AD13B695A680E4B1B6874
:101DF000DB431A403B695A6000F054FB3B695A6868
:101E00000A4B1B681344094A1360386900F074F8E0
:101E1000074B1B680133064A136000F051FB00BFFB
:101E20001837BD4680BD00BF784B0020684B0020AE
:101E3000744B002080B485B000AF4FF47053BB608A
:101E4000274BFB60FB6803F00703002B0CD0FB68FB
:101E50000733FB60FB6823F00703FB60BA68FB688D
:101E6000D31A1F4A1344BB60FB687B601D4A7B6822
:101E700013601C4B00225A607B68BA681344FB60F5
:101E80000822FB689B1AFB60FB6823F00703FB60DA
:101E9000FB68154A1360144B1B6800225A60124BF2
:101EA0001B6800221A607B683B603B68FA68D21AA4
:101EB0003B685A600C4B1A683B681A603B685B6869
:101EC0000A4A13603B685B68094A1360094B4FF08C
:101ED00000421A6000BF1437BD465DF8047B7047AE
:101EE0005C0F00205C4B0020644B00206C4B0020FA
:101EF000684B0020784B002080B485B000AF78603C
:101F0000284BFB6002E0FB681B68FB60FB681B68FA
:101F10007A689A42F7D8FB68BB60FB685B68BA686E
:101F200013447A689A4208D1FB685A687B685B68F8
:101F30001A44FB685A60FB687B607B68BB607B6807
:101F40005B68BA681A44FB681B689A4218D1FB6840
:101F50001A68154B1B689A420DD07B685A68FB685B
:101F60001B685B681A447B685A60FB681B681A68C8
:101F70007B681A6008E00C4B1A687B681A6003E003
:101F8000FB681A687B681A60FA687B689A4202D01C
:101F9000FB687A681A6000BF1437BD465DF8047BA1
:101FA000704700BF5C4B0020644B002080B58EB0B2
:101FB00004AFF860B9607A603B607B6B002B0AD19C
:101FC0004FF0500383F31188BFF36F8FBFF34F8F30
:101FD0003B6200BFFEE7BB6B002B0AD14FF0500302
:101FE00083F31188BFF36F8FBFF34F8FFB6100BF87
:101FF000FEE7A0233B613B69A02B0AD04FF05003C2
:1020000083F31188BFF36F8FBFF34F8FBB6100BFA6
:10201000FEE73B69BB6B002B1ED07B6B002B1BD0FC
:10202000BB6B7B627B6A7A6B1A637B6A022283F8E2
:102030009D20002303937B6A029307F1140301930D
:102040003B6B00933B687A68B968F86800F050F819
:10205000786A00F0EBF801E000237B617B691846A9
:102060002837BD4680BD80B58CB004AFF860B9603C
:102070003B601346FB80FB889B001846FFF7ACFDD6
:1020800078617B69002B0ED0A020FFF7A5FDF861D9
:10209000FB69002B03D0FB697A691A6305E0786954
:1020A000FFF766FE01E00023FB61FB69002B17D000
:1020B000FB69002283F89D20FA8800230393FB69C3
:1020C0000293FB6A0193BB6A00933B68B968F868A6
:1020D00000F00EF8F86900F0A9F80123BB6102E0F6
:1020E0004FF0FF33BB61BB6918462037BD4680BD4A
:1020F00080B588B000AFF860B9607A603B603B6B38
:102100001A6B7B6803F18043013B9B001344BB6166
:10211000BB6923F00703BB61BB6903F00703002B16
:102120000AD04FF0500383F31188BFF36F8FBFF3D2
:102130004F8F7B6100BFFEE7BB68002B1FD00023E1
:10214000FB6112E0BA68FB69134419783A6BFB69CA
:10215000134434330A461A70BA68FB6913441B7877
:10216000002B06D0FB690133FB61FB690F2BE9D91A
:1021700000E000BF3B6B002283F8432003E03B6B91
:10218000002283F83420BB6A062B01D90623BB62E8
:102190003B6BBA6ADA623B6BBA6A5A643B6B0022E9
:1021A0009A643B6B04331846FFF770FA3B6B1833A5
:1021B0001846FFF76BFA3B6B3A6B1A61BB6AC3F1C7
:1021C00007023B6B9A613B6B3A6B5A623B6B002296
:1021D000C3F898203B6B002283F89C203B6B4C3368
:1021E0004C220021184605F0EFFB3B6B0C4A1A65A8
:1021F0003B6B0C4A5A653B6B0B4A9A653A68F96827
:10220000B869FFF7D7FA02463B6B1A60FB6A002BEE
:1022100002D0FB6A3A6B1A6000BF2037BD4680BD12
:102220001C53002084530020EC530020B0B584B030
:1022300002AF7860FFF7EEFB394B1B680133384A79
:102240001360384B1B68002B09D1364A7B6813603A
:10225000334B1B68012B10D100F01CFB0DE0324BFF
:102260001B68002B09D12F4B1B68DA6A7B68DB6A7D
:102270009A4202D82B4A7B6813602C4B1B680133AF
:102280002A4A13607B68002B16D07B68184601F041
:1022900091FB78687B6803F134017B68DA6A7B68BC
:1022A0001B6B1D467B681B681C467B681B6BE31A17
:1022B00000932B4600F0F6FC7B68184601F0FEFB0D
:1022C0007B68DB6A01229A40194B1B681343184A4A
:1022D00013607B68DA6A13469B0013449B00154A1F
:1022E0001A447B68043319461046FFF7DCF9FFF700
:1022F000C1FB0D4B1B68002B0ED00A4B1B68DA6A22
:102300007B68DB6A9A4207D20B4B4FF080521A600F
:10231000BFF34F8FBFF36F8F00BF0837BD46B0BD0F
:102320007C4C00207C4B0020884C0020984C0020E6
:10233000844C0020804B002004ED00E080B584B088
:1023400000AF78600023FB607B68002B1BD0154B2F
:102350001B68002B0AD04FF0500383F31188BFF3A2
:102360006F8FBFF34F8FBB6000BFFEE700F09AF89E
:102370007968232000F0C8FF0021786800F04CFB4A
:1023800000F09EF8F860FB68002B07D1064B4FF079
:1023900080521A60BFF34F8FBFF36F8F00BF1037AB
:1023A000BD4680BDA44C002004ED00E080B58AB09D
:1023B00004AF0023BB6000237B603A46391D07F160
:1023C00008031846FEF7DCFC39687B68BA6802929D
:1023D00001930023009300230A462A492A48FFF765
:1023E000E5FD0346294A1360284B1B68002B02D0E9
:1023F00001237B6101E000237B617B69012B2ED1EE
:102400004FF0500383F31188BFF36F8FBFF34F8FEB
:102410003B6100BF1E4B1B684C331E4A13601E4BB2
:102420004FF0FF321A601D4B01221A601C4B002234
:102430001A60174B1B68343305221249184605F001
:10244000B3FA0346002B05D0114B1B68184601F068
:10245000F3FA01E001F092FAFFF73AFA0EE07B6935
:10246000B3F1FF3F0AD14FF0500383F31188BFF35C
:102470006F8FBFF34F8FFB6000BFFEE700BF1837C1
:10248000BD4680BD1490000865280008A04C0020BF
:102490007C4B0020100000209C4C0020884C002029
:1024A000804C002080B400AF044B1B680133034A0A
:1024B000136000BFBD465DF8047B7047A44C00204C
:1024C00080B584B000AF0023FB600023BB60434BAA
:1024D0001B68002B0AD14FF0500383F31188BFF320
:1024E0006F8FBFF34F8F3B6000BFFEE7FFF792FA9D
:1024F0003A4B1B68013B394A1360384B1B68002B71
:1025000065D1374B1B68002B61D032E0354BDB685F
:10251000DB68FB60FB6818331846FFF721F9FB689E
:1025200004331846FFF71CF9FB68184601F0C6FA99
:10253000FB68DB6A01229A402B4B1B6813432A4A33
:102540001360FB68DA6A13469B0013449B00274A1A
:102550001A44FB68043319461046FFF7A4F8FB68D9
:10256000DA6A234B1B68DB6A9A4202D3214B0122B1
:102570001A601C4B1B68002BC8D1FB68002B01D0D4
:1025800000F02AFA1C4B1B687B607B68002B10D084
:1025900000F036F80346002B02D0164B01221A60D9
:1025A0007B68013B7B607B68002BF1D1124B0022E2
:1025B0001A60104B1B68002B09D00123BB600F4B26
:1025C0004FF080521A60BFF34F8FBFF36F8FFFF74A
:1025D00051FABB6818461037BD4680BDA44C002098
:1025E0007C4C00203C4C0020844C0020804B002080
:1025F0007C4B0020904C00208C4C002004ED00E02F
:1026000080B586B000AF00237B61504B1B68002B68
:1026100040F092804E4B1B6801333B614C4A3B6952
:1026200013603B69002B20D14A4B1B681B68002BB1
:102630000AD04FF0500383F31188BFF36F8FBFF3BD
:102640004F8F3B6000BFFEE7424B1B68FB60424B75
:102650001B68404A1360404AFB6813603F4B1B688D
:1026600001333E4A136000F0B7F93D4B1B683A69ED
:102670009A424CD3374B1B681B68002B04D1384B54
:102680004FF0FF321A6042E0324B1B68DB68DB68B8
:10269000BB60BB685B687B603A697B689A4203D227
:1026A0002F4A7B68136032E0BB6804331846FFF79B
:1026B00057F8BB689B6A002B04D0BB6818331846D8
:1026C000FFF74EF8BB68184601F0F8F9BB68DB6A03
:1026D00001229A40234B1B681343224A1360BB68B4
:1026E000DA6A13469B0013449B001F4A1A44BB68D6
:1026F000043319461046FEF7D6FFBB68DA6A1B4B57
:102700001B68DB6A9A42B5D301237B61B2E7174BA2
:102710001B68DA6A144913469B0013449B000B4460
:102720001B68012B01D901237B61114B1B68002B16
:1027300007D001237B6104E00E4B1B6801330D4A77
:1027400013607B6918461837BD4680BDA44C002035
:10275000804C0020344C0020384C0020944C002049
:102760009C4C0020844C0020804B00207C4B00209F
:10277000904C00208C4C002080B586B000AF324BCE
:102780001B68002B03D0314B01221A6057E02F4BFE
:1027900000221A602E4B1B68FB60FB68B3FA83F3C0
:1027A000FB72FB7AC3F11F037B612A497A691346E6
:1027B0009B0013449B000B441B68002B0AD14FF075
:1027C000500383F31188BFF36F8FBFF34F8F7B608C
:1027D00000BFFEE77A6913469B0013449B001D4A25
:1027E00013443B613B695B685A683B695A603B69CB
:1027F0005A683B6908339A4204D13B695B685A685E
:102800003B695A603B695B68DB68134A1360124B93
:102810001B68343305221149184605F0C5F80346F4
:10282000002B05D00C4B1B68184601F005F901E0A0
:1028300001F0A4F8084B1B684C33094A136000BF31
:102840001837BD4680BD00BFA44C0020904C00202E
:10285000844C0020804B00207C4B0020149000080A
:102860001000002080B582B000AF786000F052F810
:10287000064B1B68012BF9D9054B4FF080521A60AB
:10288000BFF34F8FBFF36F8FF0E700BF804B002087
:1028900004ED00E080B582B000AF00237B600CE067
:1028A0007A6813469B0013449B00124A134418464F
:1028B000FEF7CCFE7B6801337B607B68062BEFD98B
:1028C0000D48FEF7C3FE0D48FEF7C0FE0C48FEF7AC
:1028D000BDFE0C48FEF7BAFE0B48FEF7B7FE0B4BE9
:1028E000054A1A600A4B054A1A6000BF0837BD4600
:1028F00080BD00BF804B00200C4C0020204C0020ED
:102900003C4C0020504C0020684C0020344C0020EF
:10291000384C002080B582B000AF19E0FFF77AF89C
:10292000104BDB68DB687B607B6804331846FEF77E
:1029300017FF0D4B1B68013B0B4A13600B4B1B68C9
:10294000013B0A4A1360FFF795F8786800F010F829
:10295000064B1B68002BE1D100BF00BF0837BD4606
:1029600080BD00BF504C00207C4C0020644C0020F7
:1029700080B584B000AF78607B684C33184605F0B2
:102980002BF87B6893F89D30002B08D17B681B6B7C
:102990001846FFF7EDF97868FFF7EAF918E07B6869
:1029A00093F89D30012B03D17868FFF7E1F90FE030
:1029B0007B6893F89D30022B0AD04FF0500383F3CD
:1029C0001188BFF36F8FBFF34F8FFB6000BFFEE72F
:1029D00000BF1037BD4680BD80B483B000AF0C4B44
:1029E0001B681B68002B04D10A4B4FF0FF321A60A2
:1029F00008E0074B1B68DB68DB687B607B685B6813
:102A0000044A136000BF0C37BD465DF8047B704775
:102A1000344C00209C4C002080B584B000AF78601E
:102A20003960294B1B68FB60284B1B680433184630
:102A3000FEF796FE0346002B0BD1244B1B68DB6A86
:102A4000012202FA03F3DA43214B1B681340204AA8
:102A500013607B68B3F1FF3F0AD13B68002B07D0BE
:102A60001A4B1B68043319461A48FEF71CFE26E071
:102A7000FA687B681344BB60144B1B68BA685A60E1
:102A8000BA68FB689A4209D2134B1A680F4B1B684D
:102A9000043319461046FEF72AFE10E00F4B1A6861
:102AA0000A4B1B68043319461046FEF720FE0C4BF8
:102AB0001B68BA689A4202D2094ABB68136000BF19
:102AC0001037BD4680BD00BF804C00207C4B0020ED
:102AD000844C0020684C0020384C0020344C0020EE
:102AE0009C4C002080B582B000AF264B3B60A822F2
:102AF0000021386804F068FF3B6803221A613B68D4
:102B000003225A613B68204A9A613B681F4ADA6196
:102B10003B684FF480621A623B6800229A623B680D
:102B200000225A623B680022DA623B68164A1A6643
:102B30003B68174A5A663B6810229A663B68002237
:102B40001A673B680022DA663B6800225A67BFF3C7
:102B50005F8F00237B600CE07B68C3F10F030D4A9D
:102B6000D15C3A687B6813440A461A707B6801336B
:102B70007B607B680F2BEFD9BFF35F8F00BF0837F7
:102B8000BD4680BDA84C00201C900008504D002080
:102B9000505100208097000880B58CB000AFF860DD
:102BA000B9607A603E4B3B623B6A1B78DBB2002B1C
:102BB00001D1FFF797FFFA6813465B001344DB006F
:102BC0006033374A1344FB61BB687B62FB691B6956
:102BD000BB62FB69DB68BB610023FB62BA6ABB694D
:102BE0009A422BD9FB699A68BB6AD31A7B617A69CE
:102BF0007B68934228BF13467B61FB695A68BB6AB6
:102C000013443B617A693969786A04F067FFFA6AAC
:102C10007B691344FB627A6A7B6913447B627A683E
:102C20007B69D31A7B60BA6A7B691344BB62FB6918
:102C30009B68BA6A9A4201D10023BB62BA69BB6A37
:102C4000D31A7B617A697B68934228BF13467B6104
:102C50007B69002B19D0FB695A68BB6A13443B613E
:102C60007A693969786A04F039FFFA6A7B69134432
:102C7000FB627A6A7B6913447B627A687B69D31A48
:102C80007B60BA6A7B691344BB62FB6A002B02D08B
:102C9000FB69BA6A1A61FB6A18463037BD4680BDC7
:102CA000A84C002080B586B002AFF860B9607A60A9
:102CB0003B6005222B49B86804F076FE0346002BE2
:102CC0004BD0294B1B68072B03D9284801F01EF86D
:102CD00044E0254B1A68264913469B0013449B0089
:102CE0000B44FA681A60204B1A68214913469B006E
:102CF00013449B000B440433BA681A601A4B1A68D9
:102D00001B4913469B0013449B000B4408337A680D
:102D10001A60154B1A68164913469B0013449B0012
:102D20000B440C333A681A600F4B1A68104913466B
:102D30009B0013449B000B441033BA691A600A4B82
:102D40001B680133084A1360BB6900933B687A68CB
:102D5000B968F86800F00EF800E000BF1037BD4613
:102D600080BD00BF2890000800520020309000086D
:102D70006051002080B58AB000AFF860B9607A6019
:102D80003B6007F1140314220021184604F01CFED6
:102D9000FB687B61BB68BB617B68FB613B683B6236
:102DA0003B6B7B6207F11403184600F0BDFC00BFCB
:102DB0002837BD4680BD80B487B000AFF860B960E9
:102DC0007A60BB687B61FB685A1CFA603B617B6878
:102DD000802B0AD980237B6007E0BA68531CBB6054
:102DE000FB68591CF96012781A707B685A1E7A6069
:102DF000002B03D0BB681B78002BEED1BA687B692F
:102E0000D31ADAB23B691A70FB6818461C37BD4604
:102E10005DF8047B704780B483B000AF78607B6856
:102E2000073318460C37BD465DF8047B7047000039
:102E300080B582B000AF344B1B7E1846FB1C0122CC
:102E40001946FFF7A9FE78607B68002B57D0FB7806
:102E5000802B31D0802B40DC072B15DC002B3CDD98
:102E6000013B062B39D801A252F823F08F2E00081F
:102E7000952E00089B2E0008A12E0008A72E000802
:102E8000AD2E0008B32E00087F2B33D025E000F0D4
:102E9000D1FA34E000F088FB31E000F03DFD2EE097
:102EA00000F026FD2BE000F0A5FB28E000F0F0FE8E
:102EB00025E000F0CFFE22E0134B1B7E1846FB1CE2
:102EC00001221946FFF768FE78607B68002B13D05B
:102ED000FB78184600F034FE0EE0FB785BB2002B66
:102EE0000CDA094B1B7E1846FB1C01221946FFF722
:102EF00053FE03E000BF02E000BF00E000BF00BFE0
:102F00000837BD4680BD00BF0452002080B58CB09C
:102F100000AF01233B713B1D0133FB61FB69FB6289
:102F2000314B5B69BB620BE0BB6ADAB2FB6A591CCE
:102F3000F96262F07F02D2B21A70BB6ADB09BB622F
:102F4000BB6A7F2BF0D8FB6A5A1CFA62BA6AD2B20B
:102F50001A70FB6AFB61254B1B68BB61224BDB6867
:102F6000BA69D31A7B61FB697B627B693B620BE0C8
:102F70003B6ADAB27B6A591C796262F07F02D2B294
:102F80001A703B6ADB093B623B6A7F2BF0D87B6A95
:102F90005A1C7A623A6AD2B21A707B6AFB61124B8F
:102FA0005B7818463B1DFA69D31A1A463B1D194631
:102FB000FDF716F903463B613B69002B09D00A4A2D
:102FC000BB69D360084B1B78013BDAB2064B1A7021
:102FD00004E0054B5B690133034A53613B691846C2
:102FE0003037BD4680BD00BF04520020041000E011
:102FF00080B58AB000AFF860B9607A60984B1B78F2
:10300000012B10D0964B1B78002B00F02D81944B98
:103010001B78022B09D1FFF779FF914B1B78012B0D
:1030200040F0248101E000BF00E000BF7B681F2B5F
:1030300009D88B4BDA697B6822FA03F303F00103AA
:10304000002B40F015817B68172B07D8FB68013BEC
:10305000FB607B68DAB2FB681A70C4E0BA68FB6890
:10306000D31AFB61FB697F2B12D9FB69DA09FB6874
:10307000013BFB60D2B2FB681A70FB69DBB2FA68F5
:10308000013AFA6063F07F03DAB2FB681A7006E077
:10309000FB68013BFB60FB69DAB2FB681A707B6876
:1030A0007E2B07D8FB68013BFB607B68DAB2FB68CC
:1030B0001A7098E07B68B3F5804F12D27B68DA090A
:1030C000FB68013BFB60D2B2FB681A707B68DBB225
:1030D000FA68013AFA6063F07F03DAB2FB681A70AB
:1030E00081E07B68B3F5001F1DD27B689A0BFB68FB
:1030F000013BFB60D2B2FB681A707B68DB09DBB274
:10310000FA68013AFA6063F07F03DAB2FB681A707A
:103110007B68DBB2FA68013AFA6063F07F03DAB2E7
:10312000FB681A705FE07B68B3F1805F28D27B6830
:103130005A0DFB68013BFB60D2B2FB681A707B68DA
:103140009B0BDBB2FA68013AFA6063F07F03DAB2F4
:10315000FB681A707B68DB09DBB2FA68013AFA6037
:1031600063F07F03DAB2FB681A707B68DBB2FA683F
:10317000013AFA6063F07F03DAB2FB681A7032E05A
:103180007B681A0FFB68013BFB60D2B2FB681A70C8
:103190007B685B0DDBB2FA68013AFA6063F07F038B
:1031A000DAB2FB681A707B689B0BDBB2FA68013AF3
:1031B000FA6063F07F03DAB2FB681A707B68DB09A0
:1031C000DBB2FA68013AFA6063F07F03DAB2FB68B7
:1031D0001A707B68DBB2FA68013AFA6063F07F0329
:1031E000DAB2FB681A701F4B1B68BB611C4BDB68B3
:1031F000BA69D31A7B61BB687B627B693B620BE077
:103200003B6ADAB27B6A591C796262F07F02D2B201
:103210001A703B6ADB093B623B6A7F2BF0D87B6A02
:103220005A1C7A623A6AD2B21A707B6ABB600C4B43
:103230005B781846BA68FB68D31A1A46F968FCF737
:10324000CFFF38613B69002B03D0054ABB69D360CF
:103250000FE0034B1B780133DAB2014B1A7008E020
:1032600004520020041000E000BF02E000BF00E0B4
:1032700000BF144B1B7E1946134A0B465B000B44E0
:10328000DB0013446C331A680E4B1B7E18460E4944
:1032900003465B000344DB000B4470331B689A4217
:1032A0000BD0084B9B78002B07D1064B01229A705C
:1032B000FFF7BEFD034B00229A7000BF2837BD46C2
:1032C00080BD00BF04520020A84C002080B584B00F
:1032D00000AF7860EFF311834FF0200181F3118884
:1032E000FB600848FFF797FDB8607A68B968B8686E
:1032F000FFF77EFEFB6883F3118800BF1037BD46E1
:1033000080BD00BF3452002080B588B000AF786027
:103310003960EFF311834FF0200181F311887B6155
:103320001648FFF778FD38613B69FB60FB68FB617D
:103330003B68BB610BE0BB69DAB2FB69591CF96100
:1033400062F07F02D2B21A70BB69DB09BB61BB6954
:103350007F2BF0D8FB695A1CFA61BA69D2B21A7095
:10336000FB69FB607A68F9683869FFF741FE7B69A1
:1033700083F3118800BF2037BD4680BD3452002042
:1033800080B58CB000AFF860B9607A60EFF311835C
:103390004FF0200181F31188FB612548FFF73BFDC9
:1033A000B861BB697B617B69FB62BB68BB620BE098
:1033B000BB6ADAB2FB6A591CF96262F07F02D2B2D0
:1033C0001A70BB6ADB09BB62BB6A7F2BF0D8FB6A51
:1033D0005A1CFA62BA6AD2B21A70FB6A7B617B69C4
:1033E0007B627B683B620BE03B6ADAB27B6A591C0A
:1033F000796262F07F02D2B21A703B6ADB093B62EB
:103400003B6A7F2BF0D87B6A5A1C7A623A6AD2B246
:103410001A707B6A7B61FA687969B869FFF7E8FD21
:10342000FB6983F3118800BF3037BD4680BD00BF04
:103430003452002080B58CB000AF584B01221A7076
:10344000EFF311834FF0200181F31188FB60534BA0
:103450005B780A2252491846FCF7C2FEFB6883F3E8
:1034600011880A20FFF732FFEFF311834FF020019C
:1034700081F31188BB604B48FFF7CDFC78607B6817
:103480003B603B68FB62454B5B68BB620BE0BB6A21
:10349000DAB2FB6A591CF96262F07F02D2B21A708A
:1034A000BB6ADB09BB62BB6A7F2BF0D8FB6A5A1C84
:1034B000FA62BA6AD2B21A70FB6A3B603B687B62FE
:1034C000364B9B683B620BE03B6ADAB27B6A591C65
:1034D000796262F07F02D2B21A703B6ADB093B620A
:1034E0003B6A7F2BF0D87B6A5A1C7A623A6AD2B266
:1034F0001A707B6A3B603B68FB61284B1B69BB61B0
:103500000BE0BB69DAB2FB69591CF96162F07F021A
:10351000D2B21A70BB69DB09BB61BB697F2BF0D8E3
:10352000FB695A1CFA61BA69D2B21A70FB693B6036
:103530003B687B6100233B610BE03B69DAB27B694E
:10354000591C796162F07F02D2B21A703B69DB09C3
:103550003B613B697F2BF0D87B695A1C7A613A69E1
:10356000D2B21A707B693B60182239687868FFF71D
:103570003FFDBB6883F31188084B5B6A002B02D0C8
:10358000064B5B6A984700F0C7F900F0B1F900F00C
:103590007FFB00BF3037BD4680BD00BF0452002016
:1035A000949700083452002080B582B000AFEFF34A
:1035B00011834FF0200181F311887B600B48FFF7E6
:1035C0002AFC38600A4B1B78002B07D00B22396885
:1035D0003868FFF70DFD064B00221A707B6883F3F5
:1035E000118800BF0837BD4680BD00BF345200209F
:1035F0000452002080B58CB000AFEFF311834FF080
:10360000200181F31188FB604548FFF704FCB86096
:10361000BB687B607B68FB62424B5B68BB620BE014
:10362000BB6ADAB2FB6A591CF96262F07F02D2B25D
:103630001A70BB6ADB09BB62BB6A7F2BF0D8FB6ADE
:103640005A1CFA62BA6AD2B21A70FB6A7B607B6853
:103650007B62344B9B683B620BE03B6ADAB27B6A6D
:10366000591C796262F07F02D2B21A703B6ADB09A0
:103670003B623B6A7F2BF0D87B6A5A1C7A623A6ABB
:10368000D2B21A707B6A7B607B68FB61254B1B6939
:10369000BB610BE0BB69DAB2FB69591CF96162F0EE
:1036A0007F02D2B21A70BB69DB09BB61BB697F2B99
:1036B000F0D8FB695A1CFA61BA69D2B21A70FB6978
:1036C0007B607B687B6100233B610BE03B69DAB286
:1036D0007B69591C796162F07F02D2B21A703B6932
:1036E000DB093B613B697F2BF0D87B695A1C7A610F
:1036F0003A69D2B21A707B697B6018227968B8681F
:10370000FFF776FCFB6883F31188064B5B6A002B9E
:1037100002D0044B5B6A984700BF3037BD4680BD7E
:10372000345200200452002080B592B000AF78607F
:10373000EFF311834FF0200181F311887B616A4818
:10374000FFF769FB38613B69FB60FB687B647B6862
:103750001A68664B1B69D31A3B640BE03B6CDAB208
:103760007B6C591C796462F07F02D2B21A703B6C98
:10377000DB093B643B6C7F2BF0D87B6C5A1C7A6472
:103780003A6CD2B21A707B6CFB60FB68FB637B689F
:103790009B68BB630BE0BB6BDAB2FB6B591CF96334
:1037A00062F07F02D2B21A70BB6BDB09BB63BB6BEA
:1037B0007F2BF0D8FB6B5A1CFA63BA6BD2B21A702B
:1037C000FB6BFB607B685B6820221946F868FFF79B
:1037D000F2FAF8600922F9683869FFF709FC3B69D9
:1037E000FB60FB687B637B681A68404B1B69D31ADC
:1037F0003B630BE03B6BDAB27B6B591C796362F085
:103800007F02D2B21A703B6BDB093B633B6B7F2BB1
:10381000F0D87B6B5A1C7A633A6BD2B21A707B6B0E
:10382000FB60FB68FB627B68DB68BB620BE0BB6A2A
:10383000DAB2FB6A591CF96262F07F02D2B21A70E6
:10384000BB6ADB09BB62BB6A7F2BF0D8FB6A5A1CE0
:10385000FA62BA6AD2B21A70FB6AFB60FB687B62DA
:103860007B681B693B620BE03B6ADAB27B6A591CDE
:10387000796262F07F02D2B21A703B6ADB093B6266
:103880003B6A7F2BF0D87B6A5A1C7A623A6AD2B2C2
:103890001A707B6AFB60FB68FB610023BB610BE075
:1038A000BB69DAB2FB69591CF96162F07F02D2B2DE
:1038B0001A70BB69DB09BB61BB697F2BF0D8FB6960
:1038C0005A1CFA61BA69D2B21A70FB69FB60152200
:1038D000F9683869FFF78CFB7B6983F3118800BFB7
:1038E0004837BD4680BD00BF34520020045200203E
:1038F00080B500AF074B1B6A002B08D0054B1B6A35
:103900005B68002B03D0034B1B6A5B68984700BFC2
:1039100080BD00BF0452002090B583B000AF154BAE
:103920001B6A002B1AD0134B1B6A1B68002B15D087
:10393000104B1B6A1B689847C7E900013C68D7E930
:1039400000014FF000024FF000030A00002313466D
:103950001A4621460D20FFF713FD06E0064B1B68B3
:1039600019460C20FFF7D0FC00BF00BF0C37BD4646
:1039700090BD00BF04520020041000E080B582B06A
:1039800000AFEFF311834FF0200181F311887B60CA
:103990000748FFF740FA3860112239683868FFF7A6
:1039A00027FB7B6883F3118800BF0837BD4680BDC5
:1039B0003452002080B588B000AF7860EFF31183F7
:1039C0004FF0200181F311887B611948FFF723FA3A
:1039D00038613B69FB60174B1B697A68D31A7B60BF
:1039E000FB68FB617B68BB610BE0BB69DAB2FB691A
:1039F000591CF96162F07F02D2B21A70BB69DB090F
:103A0000BB61BB697F2BF0D8FB695A1CFA61BA69AC
:103A1000D2B21A70FB69FB600822F9683869FFF7B7
:103A2000E7FA7B6983F3118800BF2037BD4680BD6C
:103A3000345200200452002080B588B000AF786076
:103A4000EFF311834FF0200181F311887B61194856
:103A5000FFF7E1F938613B69FB60174B1B697A6836
:103A6000D31A7B60FB68FB617B68BB610BE0BB69C1
:103A7000DAB2FB69591CF96162F07F02D2B21A70A6
:103A8000BB69DB09BB61BB697F2BF0D8FB695A1CA2
:103A9000FA61BA69D2B21A70FB69FB600422F96854
:103AA0003869FFF7A5FA7B6983F3118800BF2037D7
:103AB000BD4680BD345200200452002080B588B03D
:103AC00000AF7860EFF311834FF0200181F311888C
:103AD0007B611948FFF79FF938613B69FB60174B21
:103AE0001B697A68D31A7B60FB68FB617B68BB61EA
:103AF0000BE0BB69DAB2FB69591CF96162F07F0225
:103B0000D2B21A70BB69DB09BB61BB697F2BF0D8ED
:103B1000FB695A1CFA61BA69D2B21A70FB69FB6080
:103B20000622F9683869FFF763FA7B6983F3118825
:103B300000BF2037BD4680BD345200200452002013
:103B400080B58CB000AF0346FB71404B1B68002B67
:103B500077D03E4B1B68FB620023BB6208E0FB6A28
:103B60001B69FB62FB6A002B07D0BB6A0133BB6297
:103B7000FB79BA6A9A42F2D300E000BFFB6A002BDD
:103B800055D0EFF311834FF0200181F311887B6151
:103B90002F48FFF740F938613B69FB60FB687B62A7
:103BA000FB793B620BE03B6ADAB27B6A591C7962B3
:103BB00062F07F02D2B21A703B6ADB093B623B6A59
:103BC0007F2BF0D87B6A5A1C7A623A6AD2B21A709A
:103BD0007B6AFB60FB68FB61FB6A9B68BB610BE077
:103BE000BB69DAB2FB69591CF96162F07F02D2B29B
:103BF0001A70BB69DB09BB61BB697F2BF0D8FB691D
:103C00005A1CFA61BA69D2B21A70FB69FB60FB6A8E
:103C10001B6880221946F868FFF7CDF8F860162275
:103C2000F9683869FFF7E4F97B6983F31188FB6A67
:103C3000002B06D0FB6ADB68002B02D0FB6ADB6836
:103C4000984700BF3037BD4680BD00BF2C520020D2
:103C50003452002080B582B000AF0C4B1B68002BA3
:103C60000FD00A4B1B687B607B68DB68002B02D09F
:103C70007B68DB6898477B681B697B607B68002BEF
:103C8000F2D100BF0837BD4680BD00BF2C520020D6
:103C900080B586B000AFEFF311834FF0200181F3C0
:103CA0001188FB601748FFF7B6F8B860BB687B6007
:103CB0007B687B61144B1B783B610BE03B69DAB29C
:103CC0007B69591C796162F07F02D2B21A703B693C
:103CD000DB093B613B697F2BF0D87B695A1C7A6119
:103CE0003A69D2B21A707B697B601B227968B86826
:103CF000FFF77EF9FB6883F3118800BF1837BD46D4
:103D000080BD00BF345200203052002080B58AB000
:103D100000AF7860EFF311834FF0200181F3118839
:103D20007B612748FFF777F8386180227968386926
:103D3000FFF741F8F860FB687B6201233B620BE010
:103D40003B6ADAB27B6A591C796262F07F02D2B2B6
:103D50001A703B6ADB093B623B6A7F2BF0D87B6AB7
:103D60005A1C7A623A6AD2B21A707B6AFB60FB68AC
:103D7000FB610023BB610BE0BB69DAB2FB69591C34
:103D8000F96162F07F02D2B21A70BB69DB09BB61D4
:103D9000BB697F2BF0D8FB695A1CFA61BA69D2B2B1
:103DA0001A70FB69FB601A22F9683869FFF720F97D
:103DB0007B6983F3118800BF2837BD4680BD00BFF3
:103DC0003452002080B485B000AF78607B6803F087
:103DD0000703FB600C4BDB68BB60BA684FF6FF0360
:103DE0001340BB60FB681A02BB68134343F0BF6318
:103DF00043F40033BB60044ABB68D36000BF143790
:103E0000BD465DF8047B704700ED00E080B400AF74
:103E1000044BDB681B0A03F007031846BD465DF838
:103E2000047B704700ED00E080B483B000AF034630
:103E3000FB7197F90730002B0BDBFB7903F01F02B6
:103E4000074997F907305B09012000FA02F241F8AF
:103E5000232000BF0C37BD465DF8047B704700BFD0
:103E600000E100E080B483B000AF03463960FB712D
:103E700097F90730002B0ADB3B68DAB20C4997F957
:103E800007301201D2B20B4483F800230AE03B68EA
:103E9000DAB20849FB7903F00F03043B1201D2B2F6
:103EA0000B441A7600BF0C37BD465DF8047B7047A3
:103EB00000E100E000ED00E080B489B000AFF86000
:103EC000B9607A60FB6803F00703FB61FB69C3F12B
:103ED0000703042B28BF0423BB61FB690433062BB3
:103EE00002D9FB69033B00E000237B614FF0FF3206
:103EF000BB6902FA03F3DA43BB681A407B699A4054
:103F00004FF0FF317B6901FA03F3D9437B680B4023
:103F1000134318462437BD465DF8047B7047000004
:103F200080B582B000AF78607B68072B0FD07B68CC
:103F3000062B0CD07B68052B09D07B68042B06D0A0
:103F40007B68032B03D090210448FDF7A2F8786822
:103F5000FFF738FF00BF0837BD4680BD80900008DE
:103F600080B586B000AF0346B9607A60FB7300236A
:103F70007B617B680F2B03D9A8210E48FDF789F8D8
:103F8000BB680F2B03D9A9210A48FDF782F8FFF778
:103F90003DFF78617A68B9687869FFF78DFF02465E
:103FA00097F90F3011461846FFF75CFF00BF18372E
:103FB000BD4680BD8090000880B582B000AF03464A
:103FC000FB7197F90730002B03DABC210548FDF798
:103FD00060F897F907301846FFF726FF00BF08374B
:103FE000BD4680BD8090000880B586B000AF786087
:103FF00000237B6103F060FC38617B68002B01D1FA
:10400000012303E27B681B688B4A93424ED07B6896
:104010001B688A4A934249D07B681B68884A93424E
:1040200044D07B681B68874A93423FD07B681B68FB
:10403000854A93423AD07B681B68844A934235D0C4
:104040007B681B68824A934230D07B681B68814A38
:1040500093422BD07B681B687F4A934226D07B68B3
:104060001B687E4A934221D07B681B687C4A93423E
:104070001CD07B681B687B4A934217D07B681B6807
:10408000794A934212D07B681B68784A93420DD0DC
:104090007B681B68764A934208D07B681B68754A28
:1040A000934203D0B7217448FCF7F3FF7B685B6849
:1040B000002B26D07B685B68B3F1007F21D07B6842
:1040C0005B68B3F1806F1CD07B685B68B3F1C06F35
:1040D00017D07B685B68B3F1006F12D07B685B68B8
:1040E000B3F1206F0DD07B685B68B3F1406F08D0EF
:1040F0007B685B68B3F1606F03D0B8215E48FCF762
:10410000C8FF7B689B68002B0BD07B689B68402BAB
:1041100007D07B689B68802B03D0B9215648FCF7F9
:10412000B8FF7B68DB68B3F5007F07D07B68DB688E
:10413000002B03D0BA215048FCF7ABFF7B681B690A
:10414000B3F5806F07D07B681B69002B03D0BB21C0
:104150004948FCF79EFF7B685B69002B0DD07B68AC
:104160005B69B3F5006F08D07B685B69B3F5805F6E
:1041700003D0BC214048FCF78CFF7B689B69002B77
:104180000DD07B689B69B3F5005F08D07B689B69A5
:10419000B3F5804F03D0BD213748FCF77AFF7B6829
:1041A000DB69002B0CD07B68DB69B3F5807F07D01F
:1041B0007B68DB69202B03D0BE212F48FCF769FF09
:1041C0007B681B6A002B12D07B681B6AB3F5803FAB
:1041D0000DD07B681B6AB3F5003F08D07B681B6A73
:1041E000B3F5403F03D0BF212348FCF752FF7B6863
:1041F0005B6A002B07D07B685B6A042B03D0C0216D
:104200001D48FCF746FF7B685B6A002B64D07B6827
:104210009B6A002B32D07B689B6A012B2ED07B6877
:104220009B6A022B2AD07B689B6A032B26D0C52170
:104230001148FCF72EFF21E0106002402860024088
:104240004060024058600240706002408860024056
:10425000A0600240B860024010640240286402403E
:104260004064024058640240706402408864024026
:10427000A0640240B8640240FC9000087B68DB6ADE
:10428000002B12D07B68DB6AB3F5000F0DD07B6882
:10429000DB6AB3F1807F08D07B68DB6AB3F1C07F53
:1042A00003D0C6215B48FCF7F4FE7B681B6B002B38
:1042B00012D07B681B6BB3F5001F0DD07B681B6BA6
:1042C000B3F5800F08D07B681B6BB3F5C00F03D02C
:1042D000C7215048FCF7DDFE7B68022283F83520B9
:1042E0007B68002283F834207B681B681A687B682F
:1042F0001B6822F001021A600FE003F0DDFA0246AB
:104300003B69D31A052B08D97B6820225A657B6844
:10431000032283F83520032378E07B681B681B6841
:1043200003F00103002BE8D17B681B681B687B61ED
:104330007A69394B13407B617B685A687B689B685C
:104340001A437B68DB681A437B681B691A437B68E6
:104350005B691A437B689B691A437B68DB691A4374
:104360007B681B6A13437A6913437B617B685B6AD2
:10437000042B07D17B68DA6A7B681B6B13437A696D
:1043800013437B617B681B687A691A607B681B68D2
:104390005B697B617B6923F007037B617B685B6AF8
:1043A0007A6913437B617B685B6A042B17D17B6856
:1043B0009B6A7A6913437B617B68DB6A002B0ED0B2
:1043C000786800F011FB0346002B08D07B68402280
:1043D0005A657B68012283F83520012316E07B684B
:1043E0001B687A695A61786800F0C8FA0346FB6076
:1043F0007B68DB6D3F229A40FB689A607B680022F5
:104400005A657B68012283F8352000231846183747
:10441000BD4680BDFC9000083F8010F080B586B09E
:1044200000AFF860B9607A603B600023FB75FB6801
:104430009B6D3B613B68002B03D03B68B3F5803F2D
:1044400004D340F2CB112748FCF723FEFB6893F816
:104450003430012B01D1022340E0FB68012283F8B4
:104460003420FB6893F83530DBB2012B2FD1FB6889
:10447000022283F83520FB6800225A653B687A687F
:10448000B968F86800F04CFAFB68DB6D3F229A408F
:104490003B699A60FB681B681A68FB681B6842F0FE
:1044A00016021A60FB681B6C002B07D0FB681B68A8
:1044B0001A68FB681B6842F008021A60FB681B68F8
:1044C0001A68FB681B6842F001021A6005E0FB688D
:1044D000002283F834200223FB75FB7D1846183731
:1044E000BD4680BDFC90000880B584B000AF786008
:1044F0007B689B6DFB6003F0DFF9B8607B6893F825
:104500003530DBB2022B08D07B6880225A657B688D
:10451000002283F83420012352E07B681B681A686C
:104520007B681B6822F016021A607B681B685A6958
:104530007B681B6822F080025A617B681B6C002B31
:1045400003D17B689B6C002B07D07B681B681A68C3
:104550007B681B6822F008021A607B681B681A6877
:104560007B681B6822F001021A6013E003F0A4F9D3
:104570000246BB68D31A052B0CD97B6820225A65EA
:104580007B68032283F835207B68002283F834207F
:10459000032315E07B681B681B6803F00103002BF5
:1045A000E4D17B68DB6D3F229A40FB689A607B68B0
:1045B000012283F835207B68002283F83420002311
:1045C00018461037BD4680BD80B483B000AF786018
:1045D0007B6893F83530DBB2022B04D07B688022F5
:1045E0005A6501230CE07B68052283F835207B683F
:1045F0001B681A687B681B6822F001021A6000239E
:1046000018460C37BD465DF8047B704780B586B010
:1046100000AF78600023BB608E4B1B688E4AA2FB04
:1046200003239B0A7B617B689B6D3B613B691B6835
:10463000FB607B68DB6D08229A40FB681340002B0F
:104640001AD07B681B681B6803F00403002B13D08F
:104650007B681B681A687B681B6822F004021A607A
:104660007B68DB6D08229A403B699A607B685B6DD2
:1046700043F001027B685A657B68DB6D01229A403A
:10468000FB681340002B12D07B681B685B6903F04A
:104690008003002B0BD07B68DB6D01229A403B69C5
:1046A0009A607B685B6D43F002027B685A657B68A9
:1046B000DB6D04229A40FB681340002B12D07B680C
:1046C0001B681B6803F00203002B0BD07B68DB6DBB
:1046D00004229A403B699A607B685B6D43F0040258
:1046E0007B685A657B68DB6D10229A40FB6813403B
:1046F000002B43D07B681B681B6803F00803002B6A
:104700003CD07B68DB6D10229A403B699A607B68E5
:104710001B681B6803F48023002B18D07B681B6880
:104720001B6803F40023002B08D17B681B6C002B53
:1047300024D07B681B6C786898471FE07B689B6C73
:10474000002B1BD07B689B6C7868984716E07B68D1
:104750001B681B6803F48073002B07D17B681B6800
:104760001A687B681B6822F008021A607B681B6C61
:10477000002B03D07B681B6C786898477B68DB6DE7
:1047800020229A40FB681340002B00F08F807B684A
:104790001B681B6803F01003002B00F087807B6808
:1047A000DB6D20229A403B699A607B6893F8353034
:1047B000DBB2052B36D17B681B681A687B681B68E7
:1047C00022F016021A607B681B685A697B681B68B6
:1047D00022F080025A617B681B6C002B03D17B683E
:1047E0009B6C002B07D07B681B681A687B681B6872
:1047F00022F008021A607B68DB6D3F229A403B6919
:104800009A607B68012283F835207B68002283F858
:1048100034207B681B6D002B7ED07B681B6D786815
:10482000984779E07B681B681B6803F48023002BA2
:104830001DD07B681B681B6803F40023002B0DD17F
:104840007B685B6C002B31D07B685B6C7868984729
:104850002CE000BF00000020B5814E1B7B68DB6BA5
:10486000002B23D07B68DB6B786898471EE07B6861
:104870001B681B6803F48073002B0FD17B681B68D7
:104880001A687B681B6822F010021A607B6801229C
:1048900083F835207B68002283F834207B68DB6B4B
:1048A000002B03D07B68DB6B786898477B685B6D77
:1048B000002B32D07B685B6D03F00103002B22D00C
:1048C0007B68052283F835207B681B681A687B6843
:1048D0001B6822F001021A60BB680133BB607A6971
:1048E0009A4207D37B681B681B6803F00103002B07
:1048F000F2D100E000BF7B68012283F835207B689D
:10490000002283F834207B68DB6C002B05D07B68A9
:10491000DB6C7868984700E000BF1837BD4680BD63
:1049200080B485B000AFF860B9607A603B60FB6826
:104930001B681A68FB681B6822F480221A60FB68F7
:104940001B683A685A60FB689B68402B08D1FB687B
:104950001B687A689A60FB681B68BA68DA6007E0CF
:10496000FB681B68BA689A60FB681B687A68DA6043
:1049700000BF1437BD465DF8047B704780B485B036
:1049800000AF78607B681B68DBB2103B144AA2FB67
:1049900003231B09FB60134AFB6813441B781A4668
:1049A0007B68DA65FB68032B09D97B681B6823F4F5
:1049B0007F7323F003031A1D7B689A6507E07B6809
:1049C0001B6823F47F7323F003037A6893657B6885
:1049D0009B6D18461437BD465DF8047B704700BFD9
:1049E000ABAAAAAAA097000880B485B000AF7860EF
:1049F0000023FB737B689B6ABB607B689B69002B11
:104A00001FD1BB68032B56D801A252F823F000BF78
:104A1000214A0008334A0008214A0008B74A000822
:104A20007B68DB6A03F08073002B46D00123FB73A5
:104A300043E07B68DB6AB3F1C07F40D10123FB73A5
:104A40003DE07B689B69B3F5005F21D1BB68032B18
:104A500037D801A252F823F0694A00086F4A0008CB
:104A6000694A0008814A00080123FB7330E07B6833
:104A7000DB6A03F08073002B25D00123FB7322E057
:104A80007B68DB6AB3F1C07F1FD10123FB731CE09D
:104A9000BB68022B03D9BB68032B03D018E00123AA
:104AA000FB7315E07B68DB6A03F08073002B0ED08C
:104AB0000123FB730BE000BF0AE000BF08E000BF6A
:104AC00006E000BF04E000BF02E000BF00E000BF5E
:104AD000FB7B18461437BD465DF8047B704700BF6A
:104AE00080B588B000AF7860396000237B61002317
:104AF0003B610023BB617B68324A934217D07B68DD
:104B0000314A934213D07B68304A93420FD07B687E
:104B10002F4A93420BD07B682E4A934207D07B6882
:104B20002D4A934203D0AC212C48FCF7B2FA3B68E3
:104B30001B689BB2002B04D03B681B68B3F5803F19
:104B400003D3AD212548FCF7A4FA3B685B68002B32
:104B500035D03B685B68012B31D03B685B68112B1B
:104B60002DD03B685B68022B29D03B685B68122B19
:104B700025D03B685B68B3F5881F20D03B685B6835
:104B8000B3F5041F1BD03B685B68B3F5441F16D018
:104B90003B685B68B3F5901F11D03B685B68B3F569
:104BA000081F0CD03B685B68B3F5481F07D03B6813
:104BB0005B68032B03D0AE210848FCF76AFA002398
:104BC000FB610BE2000002400004024000080240CA
:104BD000000C024000100240001C024074910008CA
:104BE0000122FB6902FA03F37B613B681B687A6967
:104BF00013403B613A697B699A4240F0EC813B6823
:104C00005B6803F00303012B05D03B685B6803F08E
:104C10000303022B44D13B68DB68002B0FD03B68B9
:104C2000DB68012B0BD03B68DB68022B07D03B68AD
:104C3000DB68032B03D0C0218448FCF72AFA7B6889
:104C40009B68BB61FB695B00032202FA03F3DB4351
:104C5000BA691340BB613B68DA68FB695B0002FA22
:104C600003F3BA691343BB617B68BA699A607B68D6
:104C70005B68BB610122FB6902FA03F3DB43BA699B
:104C80001340BB613B685B681B0903F00102FB69D1
:104C900002FA03F3BA691343BB617B68BA695A60CD
:104CA0003B685B6803F00303032B27D03B689B68DA
:104CB000002B0BD03B689B68012B07D03B689B689F
:104CC000022B03D0D1216148FCF7E3F97B68DB6854
:104CD000BB61FB695B00032202FA03F3DB43BA69A1
:104CE0001340BB613B689A68FB695B0002FA03F3FF
:104CF000BA691343BB617B68BA69DA603B685B6879
:104D000003F00303022B40F0A3803B681B69002BD8
:104D100077D03B681B69092B73D03B681B69002B5C
:104D20006FD03B681B69002B6BD03B681B69002B65
:104D300067D03B681B69002B63D03B681B69012B64
:104D40005FD03B681B69012B5BD03B681B69022B62
:104D500057D03B681B69022B53D03B681B69022B61
:104D60004FD03B681B69042B4BD03B681B69042B5D
:104D700047D03B681B69042B43D03B681B69052B5C
:104D80003FD03B681B69052B3BD03B681B69052B5B
:104D900037D03B681B69062B33D03B681B69062B59
:104DA0002FD03B681B69052B2BD03B681B69062B5A
:104DB00027D03B681B69072B23D03B681B69072B57
:104DC0001FD03B681B69072B1BD03B681B69082B56
:104DD00017D03B681B690A2B13D03B681B69092B52
:104DE0000FD03B681B69092B0BD03B681B690C2B50
:104DF00007D03B681B690F2B03D0DE211348FCF75B
:104E000048F9FB69DA087B68083253F82230BB6145
:104E1000FB6903F007039B000F2202FA03F3DB4355
:104E2000BA691340BB613B681A69FB6903F0070369
:104E30009B0002FA03F3BA691343BB61FB69DA080A
:104E40007B680832B96943F8221001E074910008C8
:104E50007B681B68BB61FB695B00032202FA03F3FA
:104E6000DB43BA691340BB613B685B6803F0030234
:104E7000FB695B0002FA03F3BA691343BB617B6809
:104E8000BA691A603B685B6803F44033002B00F09A
:104E9000A2800023FB60564B5B6C554A43F4804371
:104EA0005364534B5B6C03F48043FB60FB68514AD3
:104EB000FB699B08023352F82330BB61FB6903F0A6
:104EC00003039B000F2202FA03F3DB43BA6913408A
:104ED000BB617B68484A934219D07B68474A93423A
:104EE00013D07B68464A93420DD07B68454A934273
:104EF00007D07B68444A934201D1042308E007238A
:104F000006E0032304E0022302E0012300E0002383
:104F1000FA6902F0030292009340BA691343BB613D
:104F20003449FB699B080233BA6941F82320374BA7
:104F30009B68BB613B69DB43BA691340BB613B685B
:104F40005B6803F48013002B03D0BA693B691343F9
:104F5000BB612E4ABB6993602C4BDB68BB613B692C
:104F6000DB43BA691340BB613B685B6803F4001321
:104F7000002B03D0BA693B691343BB61234ABB6969
:104F8000D360224B5B68BB613B69DB43BA6913406A
:104F9000BB613B685B6803F40033002B03D0BA6944
:104FA0003B691343BB61194ABB695360174B1B68CC
:104FB000BB613B69DB43BA691340BB613B685B681B
:104FC00003F48033002B03D0BA693B691343BB6100
:104FD0000E4ABB691360FB690133FB61FB690F2B50
:104FE0007FF6FEAD00BF00BF2037BD4680BD00BFCD
:104FF0000038024000380140000002400004024036
:1050000000080240000C024000100240003C014039
:1050100080B582B000AF78600B467B8013467B7012
:105020007B88002B04D140F29D110E48FCF731F82B
:105030007B78002B07D07B78012B04D04FF4CF7105
:105040000848FCF726F87B78002B03D07A887B6829
:105050009A6103E07B881A047B689A6100BF083775
:10506000BD4680BD7491000880B586B000AF786001
:105070007B68002B01D1012318E37B681B680F2B91
:1050800003D9E6219748FCF704F87B681B6803F016
:105090000103002B00F088807B685B68002B0DD03B
:1050A0007B685B68B3F5803F08D07B685B68B3F5CD
:1050B000A02F03D0EB218B48FBF7EBFF8A4B9B68BB
:1050C00003F00C03042B0CD0874B9B6803F00C03FC
:1050D000082B12D1844B5B6803F48003B3F5800F77
:1050E0000BD1814B1B6803F40033002B5BD07B6832
:1050F0005B68002B57D10123D8E27B685B68B3F56E
:10510000803F06D1784B1B68774A43F480331360A5
:105110001DE07B685B68B3F5A02F0CD1724B1B6858
:10512000714A43F4802313606F4B1B686E4A43F44B
:10513000803313600BE06C4B1B686B4A23F48033A5
:105140001360694B1B68684A23F4802313607B68F3
:105150005B68002B13D002F0AFFB386108E002F06F
:10516000ABFB02463B69D31A642B01D903239DE2B2
:105170005D4B1B6803F40033002BF0D014E002F009
:105180009BFB386108E002F097FB02463B69D31AAB
:10519000642B01D9032389E2534B1B6803F40033CA
:1051A000002BF0D100E000BF7B681B6803F0020316
:1051B000002B79D07B68DB68002B08D07B68DB682C
:1051C000012B04D040F21D114648FBF762FF7B68BB
:1051D0001B691F2B04D94FF48F714248FBF759FF0D
:1051E000414B9B6803F00C03002B0BD03E4B9B689C
:1051F00003F00C03082B1CD13B4B5B6803F48003CA
:10520000002B16D1384B1B6803F00203002B05D08E
:105210007B68DB68012B01D0012347E2324B1B681E
:1052200023F0F8027B681B69DB002F4913430B60F6
:105230003AE07B68DB68002B20D02C4B01221A60FF
:1052400002F03AFB386108E002F036FB02463B69A7
:10525000D31A022B01D9032328E2234B1B6803F046
:105260000203002BF0D0204B1B6823F0F8027B6870
:105270001B69DB001C4913430B6015E01B4B00222C
:105280001A6002F019FB386108E002F015FB0246D3
:105290003B69D31A022B01D9032307E2124B1B6887
:1052A00003F00203002BF0D17B681B6803F00803B6
:1052B000002B45D07B685B69002B08D07B685B695D
:1052C000012B04D04FF4AF710648FBF7E2FE7B6878
:1052D0005B69002B1ED0064B01221A6002F0ECFA2B
:1052E000386110E0F09100080038024000004742A9
:1052F000800E474202F0E0FA02463B69D31A022BC5
:1053000001D90323D2E15E4B5B6F03F00203002B54
:10531000F0D015E05B4B00221A6002F0CDFA386144
:1053200008E002F0C9FA02463B69D31A022B01D900
:105330000323BBE1524B5B6F03F00203002BF0D160
:105340007B681B6803F00403002B00F0B08000238F
:10535000FB757B689B68002B0CD07B689B68012BDE
:1053600008D07B689B68052B04D04FF4C571464874
:10537000FBF78FFE424B1B6C03F08053002B0FD1C9
:105380000023BB603E4B1B6C3D4A43F080531364CB
:105390003B4B1B6C03F08053BB60BB680123FB7568
:1053A0003A4B1B6803F48073002B18D1374B1B68F2
:1053B000364A43F48073136002F07EFA386108E0E5
:1053C00002F07AFA02463B69D31A022B01D9032371
:1053D0006CE12E4B1B6803F48073002BF0D07B68CC
:1053E0009B68012B06D1264B1B6F254A43F0010316
:1053F00013671CE07B689B68052B0CD1204B1B6F4F
:105400001F4A43F0040313671D4B1B6F1C4A43F0F4
:10541000010313670BE01A4B1B6F194A23F00103BA
:105420001367174B1B6F164A23F0040313677B683F
:105430009B68002B15D002F03FFA38610AE002F0B9
:105440003BFA02463B69D31A41F28832934201D9B2
:1054500003232BE10A4B1B6F03F00203002BEED05A
:105460001CE002F029FA386112E002F025FA024647
:105470003B69D31A41F28832934209D9032315E1DB
:1054800000380240800E4742F09100080070004052
:10549000884B1B6F03F00203002BE6D1FB7D012B31
:1054A00005D1844B1B6C834A23F0805313647B68C3
:1054B0009B69002B0CD07B689B69012B08D07B6813
:1054C0009B69022B04D040F2CD117B48FBF7E1FD34
:1054D0007B689B69002B00F0E880764B9B6803F0AB
:1054E0000C03082B00F0A9807B689B69022B40F01D
:1054F0008D807B68DB69002B09D07B68DB69B3F5A5
:10550000800F04D04FF4EB716B48FBF7C2FD7B6852
:105510001B6A012B03D97B681B6A3F2B04D940F21D
:10552000D7116548FBF7B5FD7B685B6A312B04D961
:105530007B685B6AB3F5D87F04D94FF4EC715E48A1
:10554000FBF7A7FD7B689B6A022B10D07B689B6AE8
:10555000042B0CD07B689B6A062B08D07B689B6A67
:10556000082B04D040F2D9115348FBF792FD7B6819
:10557000DB6A012B03D97B68DB6A0F2B04D94FF45C
:10558000ED714D48FBF785FD4C4B00221A6002F08F
:1055900093F9386108E002F08FF902463B69D31AAB
:1055A000022B01D9032381E0424B1B6803F00073F7
:1055B000002BF0D17B68DA697B681B6A1A437B6831
:1055C0005B6A9B011A437B689B6A5B08013B1B0477
:1055D0001A437B68DB6A1B06364913434B60374B23
:1055E00001221A6002F068F9386108E002F064F9FB
:1055F00002463B69D31A022B01D9032356E02D4BF7
:105600001B6803F00073002BF0D04EE02B4B002200
:105610001A6002F051F9386108E002F04DF90246D3
:105620003B69D31A022B01D903233FE0214B1B68AE
:1056300003F00073002BF0D137E07B689B69012BEE
:1056400001D1012332E01B4B5B68FB607B689B69E7
:10565000012B28D0FB6803F480027B68DB699A4247
:1056600021D1FB6803F03F027B681B6A9A421AD182
:10567000FA6847F6C07313407A68526A92019342FF
:1056800011D1FB6803F440327B689B6A5B08013BE5
:105690001B049A4207D1FB6803F070627B68DB6AE7
:1056A0001B069A4201D0012300E000231846183758
:1056B000BD4680BD00380240F091000860004742BE
:1056C00080B584B000AF786039607B68002B01D171
:1056D000012374E17B681B68002B03D07B681B6887
:1056E0000F2B04D940F25A217B48FBF7D2FC3B68D0
:1056F000002B19D03B68012B16D03B68022B13D02E
:105700003B68032B10D03B68042B0DD03B68052B66
:105710000AD03B68062B07D03B68072B04D040F229
:105720005B216D48FBF7B5FC6C4B1B6803F007036E
:105730003A689A420CD9694B3A68D2B21A70674BF0
:105740001B6803F007033A689A4201D0012336E14F
:105750007B681B6803F00203002B49D07B681B6841
:1057600003F00403002B05D05D4B9B685C4A43F4B7
:10577000E05393607B681B6803F00803002B05D09F
:10578000574B9B68564A43F4604393607B689B6821
:10579000002B24D07B689B68802B20D07B689B6883
:1057A000902B1CD07B689B68A02B18D07B689B68D3
:1057B000B02B14D07B689B68C02B10D07B689B6893
:1057C000D02B0CD07B689B68E02B08D07B689B6853
:1057D000F02B04D040F27E213F48FBF75AFC404BAF
:1057E0009B6823F0F0027B689B683D4913438B6004
:1057F0007B681B6803F00103002B59D07B685B6852
:10580000002B10D07B685B68012B0CD07B685B6839
:10581000022B08D07B685B68032B04D040F2852103
:105820002D48FBF736FC7B685B68012B07D12C4BBE
:105830001B6803F40033002B19D10123BFE07B6800
:105840005B68022B03D07B685B68032B07D1244B7A
:105850001B6803F00073002B09D10123AFE0204B3C
:105860001B6803F00203002B01D10123A7E01C4BAE
:105870009B6823F003027B685B68194913438B60C4
:1058800002F01AF8F8600AE002F016F80246FB6827
:10589000D31A41F28832934201D903238FE0104B8F
:1058A0009B6803F00C027B685B689B009A42EBD11B
:1058B0000A4B1B6803F007033A689A4212D2074B5F
:1058C0003A68D2B21A70054B1B6803F007033A68B6
:1058D0009A4207D0012372E0F0910008003C024098
:1058E000003802407B681B6803F00403002B25D0BE
:1058F0007B68DB68002B18D07B68DB68B3F5805FC2
:1059000013D07B68DB68B3F5A05F0ED07B68DB68E3
:10591000B3F5C05F09D07B68DB68B3F5E05F04D006
:1059200040F2C3212848FBF7B4FB284B9B6823F4C3
:10593000E0527B68DB68254913438B607B681B68FA
:1059400003F00803002B26D07B681B69002B18D0BE
:105950007B681B69B3F5805F13D07B681B69B3F567
:10596000A05F0ED07B681B69B3F5C05F09D07B6870
:105970001B69B3F5E05F04D040F2CA211248FBF77F
:1059800088FB124B9B6823F460427B681B69DB0039
:105990000E4913438B6000F021F802460B4B9B68C5
:1059A0001B0903F00F030A49CB5C22FA03F3094AEF
:1059B0001360094B1B681846FBF7C8FB0023184609
:1059C0001037BD4680BD00BFF0910008003802408E
:1059D0006897000800000020080000202DE9B04F63
:1059E00094B000AF00237B640023FB6400233B647E
:1059F0000023BB64794B9B6803F00C03082B0DD08C
:105A0000082B00F2E180002B02D0042B03D0DBE056
:105A1000734BBB64DBE0734BBB64D8E06F4B5B68DC
:105A200003F03F037B646D4B5B6803F48003002B42
:105A300063D06A4B5B689B090022BB63FA63BB6B54
:105A4000C3F308033B6300237B63D7E90C4522467D
:105A50002B464FF000004FF00001590141EAD2619E
:105A6000500102460B462146511A3961294663EB23
:105A700001037B614FF000024FF00003D7E904AB54
:105A800059468B01514643EA916351468A0151467A
:105A9000B2EB0108594663EB01094FF000024FF0E9
:105AA00000034FEAC90343EA58734FEAC80290461D
:105AB0009946234618EB0303BB602B4649EB0303CF
:105AC000FB604FF000024FF00003D7E90245294682
:105AD0004B02214643EAD15321464A021046194659
